{
  "contractName": "NFT",
  "abi": [
    {
      "inputs": [
        {
          "internalType": "address",
          "name": "marketplaceAddress",
          "type": "address"
        }
      ],
      "stateMutability": "nonpayable",
      "type": "constructor"
    },
    {
      "anonymous": false,
      "inputs": [
        {
          "indexed": true,
          "internalType": "address",
          "name": "owner",
          "type": "address"
        },
        {
          "indexed": true,
          "internalType": "address",
          "name": "approved",
          "type": "address"
        },
        {
          "indexed": true,
          "internalType": "uint256",
          "name": "tokenId",
          "type": "uint256"
        }
      ],
      "name": "Approval",
      "type": "event"
    },
    {
      "anonymous": false,
      "inputs": [
        {
          "indexed": true,
          "internalType": "address",
          "name": "owner",
          "type": "address"
        },
        {
          "indexed": true,
          "internalType": "address",
          "name": "operator",
          "type": "address"
        },
        {
          "indexed": false,
          "internalType": "bool",
          "name": "approved",
          "type": "bool"
        }
      ],
      "name": "ApprovalForAll",
      "type": "event"
    },
    {
      "anonymous": false,
      "inputs": [
        {
          "components": [
            {
              "internalType": "uint256",
              "name": "_value",
              "type": "uint256"
            }
          ],
          "indexed": false,
          "internalType": "struct Counters.Counter",
          "name": "_tokenIds",
          "type": "tuple"
        },
        {
          "indexed": false,
          "internalType": "uint256",
          "name": "_tokenId",
          "type": "uint256"
        }
      ],
      "name": "Created",
      "type": "event"
    },
    {
      "anonymous": false,
      "inputs": [
        {
          "indexed": false,
          "internalType": "uint256",
          "name": "_tokenId",
          "type": "uint256"
        }
      ],
      "name": "CreatedToken",
      "type": "event"
    },
    {
      "anonymous": false,
      "inputs": [
        {
          "indexed": true,
          "internalType": "address",
          "name": "from",
          "type": "address"
        },
        {
          "indexed": true,
          "internalType": "address",
          "name": "to",
          "type": "address"
        },
        {
          "indexed": true,
          "internalType": "uint256",
          "name": "tokenId",
          "type": "uint256"
        }
      ],
      "name": "Transfer",
      "type": "event"
    },
    {
      "inputs": [],
      "name": "_tokenIds",
      "outputs": [
        {
          "internalType": "uint256",
          "name": "_value",
          "type": "uint256"
        }
      ],
      "stateMutability": "view",
      "type": "function",
      "constant": true
    },
    {
      "inputs": [
        {
          "internalType": "address",
          "name": "to",
          "type": "address"
        },
        {
          "internalType": "uint256",
          "name": "tokenId",
          "type": "uint256"
        }
      ],
      "name": "approve",
      "outputs": [],
      "stateMutability": "nonpayable",
      "type": "function"
    },
    {
      "inputs": [
        {
          "internalType": "address",
          "name": "owner",
          "type": "address"
        }
      ],
      "name": "balanceOf",
      "outputs": [
        {
          "internalType": "uint256",
          "name": "",
          "type": "uint256"
        }
      ],
      "stateMutability": "view",
      "type": "function",
      "constant": true
    },
    {
      "inputs": [
        {
          "internalType": "uint256",
          "name": "tokenId",
          "type": "uint256"
        }
      ],
      "name": "getApproved",
      "outputs": [
        {
          "internalType": "address",
          "name": "",
          "type": "address"
        }
      ],
      "stateMutability": "view",
      "type": "function",
      "constant": true
    },
    {
      "inputs": [
        {
          "internalType": "address",
          "name": "owner",
          "type": "address"
        },
        {
          "internalType": "address",
          "name": "operator",
          "type": "address"
        }
      ],
      "name": "isApprovedForAll",
      "outputs": [
        {
          "internalType": "bool",
          "name": "",
          "type": "bool"
        }
      ],
      "stateMutability": "view",
      "type": "function",
      "constant": true
    },
    {
      "inputs": [],
      "name": "name",
      "outputs": [
        {
          "internalType": "string",
          "name": "",
          "type": "string"
        }
      ],
      "stateMutability": "view",
      "type": "function",
      "constant": true
    },
    {
      "inputs": [],
      "name": "newId",
      "outputs": [
        {
          "internalType": "uint256",
          "name": "",
          "type": "uint256"
        }
      ],
      "stateMutability": "view",
      "type": "function",
      "constant": true
    },
    {
      "inputs": [
        {
          "internalType": "uint256",
          "name": "tokenId",
          "type": "uint256"
        }
      ],
      "name": "ownerOf",
      "outputs": [
        {
          "internalType": "address",
          "name": "",
          "type": "address"
        }
      ],
      "stateMutability": "view",
      "type": "function",
      "constant": true
    },
    {
      "inputs": [
        {
          "internalType": "address",
          "name": "from",
          "type": "address"
        },
        {
          "internalType": "address",
          "name": "to",
          "type": "address"
        },
        {
          "internalType": "uint256",
          "name": "tokenId",
          "type": "uint256"
        }
      ],
      "name": "safeTransferFrom",
      "outputs": [],
      "stateMutability": "nonpayable",
      "type": "function"
    },
    {
      "inputs": [
        {
          "internalType": "address",
          "name": "from",
          "type": "address"
        },
        {
          "internalType": "address",
          "name": "to",
          "type": "address"
        },
        {
          "internalType": "uint256",
          "name": "tokenId",
          "type": "uint256"
        },
        {
          "internalType": "bytes",
          "name": "_data",
          "type": "bytes"
        }
      ],
      "name": "safeTransferFrom",
      "outputs": [],
      "stateMutability": "nonpayable",
      "type": "function"
    },
    {
      "inputs": [
        {
          "internalType": "address",
          "name": "operator",
          "type": "address"
        },
        {
          "internalType": "bool",
          "name": "approved",
          "type": "bool"
        }
      ],
      "name": "setApprovalForAll",
      "outputs": [],
      "stateMutability": "nonpayable",
      "type": "function"
    },
    {
      "inputs": [
        {
          "internalType": "bytes4",
          "name": "interfaceId",
          "type": "bytes4"
        }
      ],
      "name": "supportsInterface",
      "outputs": [
        {
          "internalType": "bool",
          "name": "",
          "type": "bool"
        }
      ],
      "stateMutability": "view",
      "type": "function",
      "constant": true
    },
    {
      "inputs": [],
      "name": "symbol",
      "outputs": [
        {
          "internalType": "string",
          "name": "",
          "type": "string"
        }
      ],
      "stateMutability": "view",
      "type": "function",
      "constant": true
    },
    {
      "inputs": [
        {
          "internalType": "uint256",
          "name": "tokenId",
          "type": "uint256"
        }
      ],
      "name": "tokenURI",
      "outputs": [
        {
          "internalType": "string",
          "name": "",
          "type": "string"
        }
      ],
      "stateMutability": "view",
      "type": "function",
      "constant": true
    },
    {
      "inputs": [
        {
          "internalType": "address",
          "name": "from",
          "type": "address"
        },
        {
          "internalType": "address",
          "name": "to",
          "type": "address"
        },
        {
          "internalType": "uint256",
          "name": "tokenId",
          "type": "uint256"
        }
      ],
      "name": "transferFrom",
      "outputs": [],
      "stateMutability": "nonpayable",
      "type": "function"
    },
    {
      "inputs": [
        {
          "internalType": "string",
          "name": "tokenURI",
          "type": "string"
        }
      ],
      "name": "create",
      "outputs": [
        {
          "internalType": "uint256",
          "name": "",
          "type": "uint256"
        }
      ],
      "stateMutability": "nonpayable",
      "type": "function"
    }
  ],
  "bytecode": "0x60806040523480156200001157600080fd5b5060405162002f1038038062002f108339818101604052810190620000379190620001e6565b6040518060400160405280601081526020017f43727970746f426f7920546f6b656e73000000000000000000000000000000008152506040518060400160405280600381526020017f43425400000000000000000000000000000000000000000000000000000000008152508160009080519060200190620000bb9291906200011f565b508060019080519060200190620000d49291906200011f565b50505080600960006101000a81548173ffffffffffffffffffffffffffffffffffffffff021916908373ffffffffffffffffffffffffffffffffffffffff16021790555050620002c5565b8280546200012d9062000246565b90600052602060002090601f0160209004810192826200015157600085556200019d565b82601f106200016c57805160ff19168380011785556200019d565b828001600101855582156200019d579182015b828111156200019c5782518255916020019190600101906200017f565b5b509050620001ac9190620001b0565b5090565b5b80821115620001cb576000816000905550600101620001b1565b5090565b600081519050620001e081620002ab565b92915050565b600060208284031215620001f957600080fd5b60006200020984828501620001cf565b91505092915050565b60006200021f8262000226565b9050919050565b600073ffffffffffffffffffffffffffffffffffffffff82169050919050565b600060028204905060018216806200025f57607f821691505b602082108114156200027657620002756200027c565b5b50919050565b7f4e487b7100000000000000000000000000000000000000000000000000000000600052602260045260246000fd5b620002b68162000212565b8114620002c257600080fd5b50565b612c3b80620002d56000396000f3fe608060405234801561001057600080fd5b50600436106101005760003560e01c806370a0823111610097578063b6a46b3b11610066578063b6a46b3b146102ad578063b88d4fde146102dd578063c87b56dd146102f9578063e985e9c51461032957610100565b806370a082311461022557806395d89b4114610255578063a22cb46514610273578063aa46a4001461028f57610100565b806323b872dd116100d357806323b872dd1461019f57806342842e0e146101bb5780635c956fb9146101d75780636352211e146101f557610100565b806301ffc9a71461010557806306fdde0314610135578063081812fc14610153578063095ea7b314610183575b600080fd5b61011f600480360381019061011a9190611ca7565b610359565b60405161012c9190612103565b60405180910390f35b61013d61043b565b60405161014a919061211e565b60405180910390f35b61016d60048036038101906101689190611d3a565b6104cd565b60405161017a919061209c565b60405180910390f35b61019d60048036038101906101989190611c6b565b610552565b005b6101b960048036038101906101b49190611b65565b61066a565b005b6101d560048036038101906101d09190611b65565b6106ca565b005b6101df6106ea565b6040516101ec9190612349565b60405180910390f35b61020f600480360381019061020a9190611d3a565b6106f0565b60405161021c919061209c565b60405180910390f35b61023f600480360381019061023a9190611b00565b6107a2565b60405161024c9190612349565b60405180910390f35b61025d61085a565b60405161026a919061211e565b60405180910390f35b61028d60048036038101906102889190611c2f565b6108ec565b005b610297610a6d565b6040516102a49190612349565b60405180910390f35b6102c760048036038101906102c29190611cf9565b610a79565b6040516102d49190612349565b60405180910390f35b6102f760048036038101906102f29190611bb4565b610b55565b005b610313600480360381019061030e9190611d3a565b610bb7565b604051610320919061211e565b60405180910390f35b610343600480360381019061033e9190611b29565b610d09565b6040516103509190612103565b60405180910390f35b60007f80ac58cd000000000000000000000000000000000000000000000000000000007bffffffffffffffffffffffffffffffffffffffffffffffffffffffff1916827bffffffffffffffffffffffffffffffffffffffffffffffffffffffff1916148061042457507f5b5e139f000000000000000000000000000000000000000000000000000000007bffffffffffffffffffffffffffffffffffffffffffffffffffffffff1916827bffffffffffffffffffffffffffffffffffffffffffffffffffffffff1916145b80610434575061043382610d9d565b5b9050919050565b60606000805461044a906125a9565b80601f0160208091040260200160405190810160405280929190818152602001828054610476906125a9565b80156104c35780601f10610498576101008083540402835291602001916104c3565b820191906000526020600020905b8154815290600101906020018083116104a657829003601f168201915b5050505050905090565b60006104d882610e07565b610517576040517f08c379a000000000000000000000000000000000000000000000000000000000815260040161050e906122a0565b60405180910390fd5b6004600083815260200190815260200160002060009054906101000a900473ffffffffffffffffffffffffffffffffffffffff169050919050565b600061055d826106f0565b90508073ffffffffffffffffffffffffffffffffffffffff168373ffffffffffffffffffffffffffffffffffffffff1614156105ce576040517f08c379a00000000000000000000000000000000000000000000000000000000081526004016105c5906122e0565b60405180910390fd5b8073ffffffffffffffffffffffffffffffffffffffff166105ed610e73565b73ffffffffffffffffffffffffffffffffffffffff16148061061c575061061b81610616610e73565b610d09565b5b61065b576040517f08c379a0000000000000000000000000000000000000000000000000000000008152600401610652906121e0565b60405180910390fd5b6106658383610e7b565b505050565b61067b610675610e73565b82610f34565b6106ba576040517f08c379a00000000000000000000000000000000000000000000000000000000081526004016106b190612300565b60405180910390fd5b6106c5838383611012565b505050565b6106e583838360405180602001604052806000815250610b55565b505050565b60085481565b6000806002600084815260200190815260200160002060009054906101000a900473ffffffffffffffffffffffffffffffffffffffff169050600073ffffffffffffffffffffffffffffffffffffffff168173ffffffffffffffffffffffffffffffffffffffff161415610799576040517f08c379a000000000000000000000000000000000000000000000000000000000815260040161079090612220565b60405180910390fd5b80915050919050565b60008073ffffffffffffffffffffffffffffffffffffffff168273ffffffffffffffffffffffffffffffffffffffff161415610813576040517f08c379a000000000000000000000000000000000000000000000000000000000815260040161080a90612200565b60405180910390fd5b600360008373ffffffffffffffffffffffffffffffffffffffff1673ffffffffffffffffffffffffffffffffffffffff168152602001908152602001600020549050919050565b606060018054610869906125a9565b80601f0160208091040260200160405190810160405280929190818152602001828054610895906125a9565b80156108e25780601f106108b7576101008083540402835291602001916108e2565b820191906000526020600020905b8154815290600101906020018083116108c557829003601f168201915b5050505050905090565b6108f4610e73565b73ffffffffffffffffffffffffffffffffffffffff168273ffffffffffffffffffffffffffffffffffffffff161415610962576040517f08c379a0000000000000000000000000000000000000000000000000000000008152600401610959906121a0565b60405180910390fd5b806005600061096f610e73565b73ffffffffffffffffffffffffffffffffffffffff1673ffffffffffffffffffffffffffffffffffffffff16815260200190815260200160002060008473ffffffffffffffffffffffffffffffffffffffff1673ffffffffffffffffffffffffffffffffffffffff16815260200190815260200160002060006101000a81548160ff0219169083151502179055508173ffffffffffffffffffffffffffffffffffffffff16610a1c610e73565b73ffffffffffffffffffffffffffffffffffffffff167f17307eab39ab6107e8899845ad3d59bd9653f200f220920489ca2b5937696c3183604051610a619190612103565b60405180910390a35050565b60078060000154905081565b6000610a856007611248565b6000610a91600761125e565b905080600881905550610aa4338261126c565b610aae818461143a565b610adb600960009054906101000a900473ffffffffffffffffffffffffffffffffffffffff1660016108ec565b7fb2366bdf20ef740d92ac44873588a5da99a4d13cde583a4fe5ad1c971847667381604051610b0a9190612349565b60405180910390a17f746049fa4b4439a53b1cc3e715ce3cf1a50c9b846f040c54dce0604846b70587600782604051610b44929190612320565b60405180910390a180915050919050565b610b66610b60610e73565b83610f34565b610ba5576040517f08c379a0000000000000000000000000000000000000000000000000000000008152600401610b9c90612300565b60405180910390fd5b610bb1848484846114ae565b50505050565b6060610bc282610e07565b610c01576040517f08c379a0000000000000000000000000000000000000000000000000000000008152600401610bf890612280565b60405180910390fd5b6000600660008481526020019081526020016000208054610c21906125a9565b80601f0160208091040260200160405190810160405280929190818152602001828054610c4d906125a9565b8015610c9a5780601f10610c6f57610100808354040283529160200191610c9a565b820191906000526020600020905b815481529060010190602001808311610c7d57829003601f168201915b505050505090506000610cab61150a565b9050600081511415610cc1578192505050610d04565b600082511115610cf6578082604051602001610cde929190612078565b60405160208183030381529060405292505050610d04565b610cff84611521565b925050505b919050565b6000600560008473ffffffffffffffffffffffffffffffffffffffff1673ffffffffffffffffffffffffffffffffffffffff16815260200190815260200160002060008373ffffffffffffffffffffffffffffffffffffffff1673ffffffffffffffffffffffffffffffffffffffff16815260200190815260200160002060009054906101000a900460ff16905092915050565b60007f01ffc9a7000000000000000000000000000000000000000000000000000000007bffffffffffffffffffffffffffffffffffffffffffffffffffffffff1916827bffffffffffffffffffffffffffffffffffffffffffffffffffffffff1916149050919050565b60008073ffffffffffffffffffffffffffffffffffffffff166002600084815260200190815260200160002060009054906101000a900473ffffffffffffffffffffffffffffffffffffffff1673ffffffffffffffffffffffffffffffffffffffff1614159050919050565b600033905090565b816004600083815260200190815260200160002060006101000a81548173ffffffffffffffffffffffffffffffffffffffff021916908373ffffffffffffffffffffffffffffffffffffffff160217905550808273ffffffffffffffffffffffffffffffffffffffff16610eee836106f0565b73ffffffffffffffffffffffffffffffffffffffff167f8c5be1e5ebec7d5bd14f71427d1e84f3dd0314c0f7b2291e5b200ac8c7c3b92560405160405180910390a45050565b6000610f3f82610e07565b610f7e576040517f08c379a0000000000000000000000000000000000000000000000000000000008152600401610f75906121c0565b60405180910390fd5b6000610f89836106f0565b90508073ffffffffffffffffffffffffffffffffffffffff168473ffffffffffffffffffffffffffffffffffffffff161480610ff857508373ffffffffffffffffffffffffffffffffffffffff16610fe0846104cd565b73ffffffffffffffffffffffffffffffffffffffff16145b8061100957506110088185610d09565b5b91505092915050565b61102361101d610e73565b82610f34565b611062576040517f08c379a000000000000000000000000000000000000000000000000000000000815260040161105990612300565b60405180910390fd5b600073ffffffffffffffffffffffffffffffffffffffff168273ffffffffffffffffffffffffffffffffffffffff1614156110d2576040517f08c379a00000000000000000000000000000000000000000000000000000000081526004016110c990612180565b60405180910390fd5b6110dd8383836115c8565b6110e8600082610e7b565b6001600360008573ffffffffffffffffffffffffffffffffffffffff1673ffffffffffffffffffffffffffffffffffffffff168152602001908152602001600020600082825461113891906124b5565b925050819055506001600360008473ffffffffffffffffffffffffffffffffffffffff1673ffffffffffffffffffffffffffffffffffffffff168152602001908152602001600020600082825461118f919061242e565b92505081905550816002600083815260200190815260200160002060006101000a81548173ffffffffffffffffffffffffffffffffffffffff021916908373ffffffffffffffffffffffffffffffffffffffff160217905550808273ffffffffffffffffffffffffffffffffffffffff168473ffffffffffffffffffffffffffffffffffffffff167fddf252ad1be2c89b69c2b068fc378daa952ba7f163c4a11628f55a4df523b3ef60405160405180910390a4505050565b6001816000016000828254019250508190555050565b600081600001549050919050565b600073ffffffffffffffffffffffffffffffffffffffff168273ffffffffffffffffffffffffffffffffffffffff1614156112dc576040517f08c379a00000000000000000000000000000000000000000000000000000000081526004016112d390612260565b60405180910390fd5b6112e581610e07565b15611325576040517f08c379a000000000000000000000000000000000000000000000000000000000815260040161131c90612160565b60405180910390fd5b611331600083836115c8565b6001600360008473ffffffffffffffffffffffffffffffffffffffff1673ffffffffffffffffffffffffffffffffffffffff1681526020019081526020016000206000828254611381919061242e565b92505081905550816002600083815260200190815260200160002060006101000a81548173ffffffffffffffffffffffffffffffffffffffff021916908373ffffffffffffffffffffffffffffffffffffffff160217905550808273ffffffffffffffffffffffffffffffffffffffff16600073ffffffffffffffffffffffffffffffffffffffff167fddf252ad1be2c89b69c2b068fc378daa952ba7f163c4a11628f55a4df523b3ef60405160405180910390a45050565b61144382610e07565b611482576040517f08c379a000000000000000000000000000000000000000000000000000000000815260040161147990612240565b60405180910390fd5b806006600084815260200190815260200160002090805190602001906114a9929190611924565b505050565b6114b9848484611012565b6114c5848484846115cd565b611504576040517f08c379a00000000000000000000000000000000000000000000000000000000081526004016114fb90612140565b60405180910390fd5b50505050565b606060405180602001604052806000815250905090565b606061152c82610e07565b61156b576040517f08c379a0000000000000000000000000000000000000000000000000000000008152600401611562906122c0565b60405180910390fd5b600061157561150a565b9050600081511161159557604051806020016040528060008152506115c0565b8061159f84611764565b6040516020016115b0929190612078565b6040516020818303038152906040525b915050919050565b505050565b60006115ee8473ffffffffffffffffffffffffffffffffffffffff16611911565b15611757578373ffffffffffffffffffffffffffffffffffffffff1663150b7a02611617610e73565b8786866040518563ffffffff1660e01b815260040161163994939291906120b7565b602060405180830381600087803b15801561165357600080fd5b505af192505050801561168457506040513d601f19601f820116820180604052508101906116819190611cd0565b60015b611707573d80600081146116b4576040519150601f19603f3d011682016040523d82523d6000602084013e6116b9565b606091505b506000815114156116ff576040517f08c379a00000000000000000000000000000000000000000000000000000000081526004016116f690612140565b60405180910390fd5b805181602001fd5b63150b7a0260e01b7bffffffffffffffffffffffffffffffffffffffffffffffffffffffff1916817bffffffffffffffffffffffffffffffffffffffffffffffffffffffff19161491505061175c565b600190505b949350505050565b606060008214156117ac576040518060400160405280600181526020017f3000000000000000000000000000000000000000000000000000000000000000815250905061190c565b600082905060005b600082146117de5780806117c790612626565b915050600a826117d79190612484565b91506117b4565b60008167ffffffffffffffff811115611820577f4e487b7100000000000000000000000000000000000000000000000000000000600052604160045260246000fd5b6040519080825280601f01601f1916602001820160405280156118525781602001600182028036833780820191505090505b5090505b600085146119055760018261186b91906124b5565b9150600a8561187a919061266f565b6030611886919061242e565b60f81b8183815181106118c2577f4e487b7100000000000000000000000000000000000000000000000000000000600052603260045260246000fd5b60200101907effffffffffffffffffffffffffffffffffffffffffffffffffffffffffffff1916908160001a905350600a856118fe9190612484565b9450611856565b8093505050505b919050565b600080823b905060008111915050919050565b828054611930906125a9565b90600052602060002090601f0160209004810192826119525760008555611999565b82601f1061196b57805160ff1916838001178555611999565b82800160010185558215611999579182015b8281111561199857825182559160200191906001019061197d565b5b5090506119a691906119aa565b5090565b5b808211156119c35760008160009055506001016119ab565b5090565b60006119da6119d584612389565b612364565b9050828152602081018484840111156119f257600080fd5b6119fd848285612567565b509392505050565b6000611a18611a13846123ba565b612364565b905082815260208101848484011115611a3057600080fd5b611a3b848285612567565b509392505050565b600081359050611a5281612ba9565b92915050565b600081359050611a6781612bc0565b92915050565b600081359050611a7c81612bd7565b92915050565b600081519050611a9181612bd7565b92915050565b600082601f830112611aa857600080fd5b8135611ab88482602086016119c7565b91505092915050565b600082601f830112611ad257600080fd5b8135611ae2848260208601611a05565b91505092915050565b600081359050611afa81612bee565b92915050565b600060208284031215611b1257600080fd5b6000611b2084828501611a43565b91505092915050565b60008060408385031215611b3c57600080fd5b6000611b4a85828601611a43565b9250506020611b5b85828601611a43565b9150509250929050565b600080600060608486031215611b7a57600080fd5b6000611b8886828701611a43565b9350506020611b9986828701611a43565b9250506040611baa86828701611aeb565b9150509250925092565b60008060008060808587031215611bca57600080fd5b6000611bd887828801611a43565b9450506020611be987828801611a43565b9350506040611bfa87828801611aeb565b925050606085013567ffffffffffffffff811115611c1757600080fd5b611c2387828801611a97565b91505092959194509250565b60008060408385031215611c4257600080fd5b6000611c5085828601611a43565b9250506020611c6185828601611a58565b9150509250929050565b60008060408385031215611c7e57600080fd5b6000611c8c85828601611a43565b9250506020611c9d85828601611aeb565b9150509250929050565b600060208284031215611cb957600080fd5b6000611cc784828501611a6d565b91505092915050565b600060208284031215611ce257600080fd5b6000611cf084828501611a82565b91505092915050565b600060208284031215611d0b57600080fd5b600082013567ffffffffffffffff811115611d2557600080fd5b611d3184828501611ac1565b91505092915050565b600060208284031215611d4c57600080fd5b6000611d5a84828501611aeb565b91505092915050565b611d6c816124f3565b82525050565b611d7b81612505565b82525050565b6000611d8c826123eb565b611d968185612401565b9350611da6818560208601612576565b611daf8161275c565b840191505092915050565b6000611dc5826123f6565b611dcf8185612412565b9350611ddf818560208601612576565b611de88161275c565b840191505092915050565b6000611dfe826123f6565b611e088185612423565b9350611e18818560208601612576565b80840191505092915050565b6000611e31603283612412565b9150611e3c8261277a565b604082019050919050565b6000611e54601c83612412565b9150611e5f826127c9565b602082019050919050565b6000611e77602483612412565b9150611e82826127f2565b604082019050919050565b6000611e9a601983612412565b9150611ea582612841565b602082019050919050565b6000611ebd602c83612412565b9150611ec88261286a565b604082019050919050565b6000611ee0603883612412565b9150611eeb826128b9565b604082019050919050565b6000611f03602a83612412565b9150611f0e82612908565b604082019050919050565b6000611f26602983612412565b9150611f3182612957565b604082019050919050565b6000611f49602e83612412565b9150611f54826129a6565b604082019050919050565b6000611f6c602083612412565b9150611f77826129f5565b602082019050919050565b6000611f8f603183612412565b9150611f9a82612a1e565b604082019050919050565b6000611fb2602c83612412565b9150611fbd82612a6d565b604082019050919050565b6000611fd5602f83612412565b9150611fe082612abc565b604082019050919050565b6000611ff8602183612412565b915061200382612b0b565b604082019050919050565b600061201b603183612412565b915061202682612b5a565b604082019050919050565b602082016000808301549050612046816125db565b612053600086018261205a565b5050505050565b6120638161255d565b82525050565b6120728161255d565b82525050565b60006120848285611df3565b91506120908284611df3565b91508190509392505050565b60006020820190506120b16000830184611d63565b92915050565b60006080820190506120cc6000830187611d63565b6120d96020830186611d63565b6120e66040830185612069565b81810360608301526120f88184611d81565b905095945050505050565b60006020820190506121186000830184611d72565b92915050565b600060208201905081810360008301526121388184611dba565b905092915050565b6000602082019050818103600083015261215981611e24565b9050919050565b6000602082019050818103600083015261217981611e47565b9050919050565b6000602082019050818103600083015261219981611e6a565b9050919050565b600060208201905081810360008301526121b981611e8d565b9050919050565b600060208201905081810360008301526121d981611eb0565b9050919050565b600060208201905081810360008301526121f981611ed3565b9050919050565b6000602082019050818103600083015261221981611ef6565b9050919050565b6000602082019050818103600083015261223981611f19565b9050919050565b6000602082019050818103600083015261225981611f3c565b9050919050565b6000602082019050818103600083015261227981611f5f565b9050919050565b6000602082019050818103600083015261229981611f82565b9050919050565b600060208201905081810360008301526122b981611fa5565b9050919050565b600060208201905081810360008301526122d981611fc8565b9050919050565b600060208201905081810360008301526122f981611feb565b9050919050565b600060208201905081810360008301526123198161200e565b9050919050565b60006040820190506123356000830185612031565b6123426020830184612069565b9392505050565b600060208201905061235e6000830184612069565b92915050565b600061236e61237f565b905061237a82826125f5565b919050565b6000604051905090565b600067ffffffffffffffff8211156123a4576123a361272d565b5b6123ad8261275c565b9050602081019050919050565b600067ffffffffffffffff8211156123d5576123d461272d565b5b6123de8261275c565b9050602081019050919050565b600081519050919050565b600081519050919050565b600082825260208201905092915050565b600082825260208201905092915050565b600081905092915050565b60006124398261255d565b91506124448361255d565b9250827fffffffffffffffffffffffffffffffffffffffffffffffffffffffffffffffff03821115612479576124786126a0565b5b828201905092915050565b600061248f8261255d565b915061249a8361255d565b9250826124aa576124a96126cf565b5b828204905092915050565b60006124c08261255d565b91506124cb8361255d565b9250828210156124de576124dd6126a0565b5b828203905092915050565b6000819050919050565b60006124fe8261253d565b9050919050565b60008115159050919050565b60007fffffffff0000000000000000000000000000000000000000000000000000000082169050919050565b600073ffffffffffffffffffffffffffffffffffffffff82169050919050565b6000819050919050565b82818337600083830152505050565b60005b83811015612594578082015181840152602081019050612579565b838111156125a3576000848401525b50505050565b600060028204905060018216806125c157607f821691505b602082108114156125d5576125d46126fe565b5b50919050565b60006125ee6125e98361276d565b6124e9565b9050919050565b6125fe8261275c565b810181811067ffffffffffffffff8211171561261d5761261c61272d565b5b80604052505050565b60006126318261255d565b91507fffffffffffffffffffffffffffffffffffffffffffffffffffffffffffffffff821415612664576126636126a0565b5b600182019050919050565b600061267a8261255d565b91506126858361255d565b925082612695576126946126cf565b5b828206905092915050565b7f4e487b7100000000000000000000000000000000000000000000000000000000600052601160045260246000fd5b7f4e487b7100000000000000000000000000000000000000000000000000000000600052601260045260246000fd5b7f4e487b7100000000000000000000000000000000000000000000000000000000600052602260045260246000fd5b7f4e487b7100000000000000000000000000000000000000000000000000000000600052604160045260246000fd5b6000601f19601f8301169050919050565b60008160001c9050919050565b7f4552433732313a207472616e7366657220746f206e6f6e20455243373231526560008201527f63656976657220696d706c656d656e7465720000000000000000000000000000602082015250565b7f4552433732313a20746f6b656e20616c7265616479206d696e74656400000000600082015250565b7f4552433732313a207472616e7366657220746f20746865207a65726f2061646460008201527f7265737300000000000000000000000000000000000000000000000000000000602082015250565b7f4552433732313a20617070726f766520746f2063616c6c657200000000000000600082015250565b7f4552433732313a206f70657261746f7220717565727920666f72206e6f6e657860008201527f697374656e7420746f6b656e0000000000000000000000000000000000000000602082015250565b7f4552433732313a20617070726f76652063616c6c6572206973206e6f74206f7760008201527f6e6572206e6f7220617070726f76656420666f7220616c6c0000000000000000602082015250565b7f4552433732313a2062616c616e636520717565727920666f7220746865207a6560008201527f726f206164647265737300000000000000000000000000000000000000000000602082015250565b7f4552433732313a206f776e657220717565727920666f72206e6f6e657869737460008201527f656e7420746f6b656e0000000000000000000000000000000000000000000000602082015250565b7f45524337323155524953746f726167653a2055524920736574206f66206e6f6e60008201527f6578697374656e7420746f6b656e000000000000000000000000000000000000602082015250565b7f4552433732313a206d696e7420746f20746865207a65726f2061646472657373600082015250565b7f45524337323155524953746f726167653a2055524920717565727920666f722060008201527f6e6f6e6578697374656e7420746f6b656e000000000000000000000000000000602082015250565b7f4552433732313a20617070726f76656420717565727920666f72206e6f6e657860008201527f697374656e7420746f6b656e0000000000000000000000000000000000000000602082015250565b7f4552433732314d657461646174613a2055524920717565727920666f72206e6f60008201527f6e6578697374656e7420746f6b656e0000000000000000000000000000000000602082015250565b7f4552433732313a20617070726f76616c20746f2063757272656e74206f776e6560008201527f7200000000000000000000000000000000000000000000000000000000000000602082015250565b7f4552433732313a207472616e736665722063616c6c6572206973206e6f74206f60008201527f776e6572206e6f7220617070726f766564000000000000000000000000000000602082015250565b612bb2816124f3565b8114612bbd57600080fd5b50565b612bc981612505565b8114612bd457600080fd5b50565b612be081612511565b8114612beb57600080fd5b50565b612bf78161255d565b8114612c0257600080fd5b5056fea26469706673582212207fc57785718d9b4da790b662eaa348133954ca01d7b2c4fb60957c27376d176e64736f6c63430008040033",
  "immutableReferences": {},
  "source": "// SPDX-License-Identifier: MIT\npragma solidity ^0.8.4;\n\nimport '@openzeppelin/contracts/token/ERC721/ERC721.sol';\nimport '@openzeppelin/contracts/token/ERC721/extensions/ERC721URIStorage.sol';\nimport '@openzeppelin/contracts/utils/Counters.sol';\n\ncontract NFT is ERC721URIStorage{\n    using Counters for Counters.Counter;\n    Counters.Counter public _tokenIds;\n    uint256 public newId;\n    address contractAddress;\n\n    event Created(Counters.Counter _tokenIds, uint256 _tokenId);\n    event CreatedToken(uint256 _tokenId);\n\n    constructor(address marketplaceAddress) ERC721(\"CryptoBoy Tokens\", \"CBT\"){\n        contractAddress = marketplaceAddress;\n    }\n\n    function create(string memory tokenURI) public returns(uint){\n        _tokenIds.increment();\n        uint256 newItemId = _tokenIds.current();\n        newId = newItemId;\n        _mint(msg.sender, newItemId);\n        _setTokenURI(newItemId, tokenURI);\n        setApprovalForAll(contractAddress, true);\n        emit CreatedToken(newItemId);\n        emit Created(_tokenIds, newItemId);\n        return newItemId;\n    }\n}",
  "sourcePath": "/home/sulaman/Documents/BlockchainProjects/NFT/nft-marketplace/contracts/NFT.sol",
  "compiler": {
    "name": "solc",
    "version": "0.8.4+commit.c7e474f2.Emscripten.clang"
  },
  "schemaVersion": "3.4.1",
  "updatedAt": "2021-10-12T22:41:54.950Z",
  "networkType": "ethereum",
  "devdoc": {
    "kind": "dev",
    "methods": {
      "approve(address,uint256)": {
        "details": "See {IERC721-approve}."
      },
      "balanceOf(address)": {
        "details": "See {IERC721-balanceOf}."
      },
      "getApproved(uint256)": {
        "details": "See {IERC721-getApproved}."
      },
      "isApprovedForAll(address,address)": {
        "details": "See {IERC721-isApprovedForAll}."
      },
      "name()": {
        "details": "See {IERC721Metadata-name}."
      },
      "ownerOf(uint256)": {
        "details": "See {IERC721-ownerOf}."
      },
      "safeTransferFrom(address,address,uint256)": {
        "details": "See {IERC721-safeTransferFrom}."
      },
      "safeTransferFrom(address,address,uint256,bytes)": {
        "details": "See {IERC721-safeTransferFrom}."
      },
      "setApprovalForAll(address,bool)": {
        "details": "See {IERC721-setApprovalForAll}."
      },
      "supportsInterface(bytes4)": {
        "details": "See {IERC165-supportsInterface}."
      },
      "symbol()": {
        "details": "See {IERC721Metadata-symbol}."
      },
      "tokenURI(uint256)": {
        "details": "See {IERC721Metadata-tokenURI}."
      },
      "transferFrom(address,address,uint256)": {
        "details": "See {IERC721-transferFrom}."
      }
    },
    "version": 1
  },
  "userdoc": {
    "kind": "user",
    "methods": {},
    "version": 1
  }
}