{
  "contractName": "NFT",
  "abi": [
    {
      "inputs": [
        {
          "internalType": "address",
          "name": "marketplaceAddress",
          "type": "address"
        }
      ],
      "stateMutability": "nonpayable",
      "type": "constructor"
    },
    {
      "anonymous": false,
      "inputs": [
        {
          "indexed": true,
          "internalType": "address",
          "name": "owner",
          "type": "address"
        },
        {
          "indexed": true,
          "internalType": "address",
          "name": "approved",
          "type": "address"
        },
        {
          "indexed": true,
          "internalType": "uint256",
          "name": "tokenId",
          "type": "uint256"
        }
      ],
      "name": "Approval",
      "type": "event"
    },
    {
      "anonymous": false,
      "inputs": [
        {
          "indexed": true,
          "internalType": "address",
          "name": "owner",
          "type": "address"
        },
        {
          "indexed": true,
          "internalType": "address",
          "name": "operator",
          "type": "address"
        },
        {
          "indexed": false,
          "internalType": "bool",
          "name": "approved",
          "type": "bool"
        }
      ],
      "name": "ApprovalForAll",
      "type": "event"
    },
    {
      "anonymous": false,
      "inputs": [
        {
          "components": [
            {
              "internalType": "uint256",
              "name": "_value",
              "type": "uint256"
            }
          ],
          "indexed": false,
          "internalType": "struct Counters.Counter",
          "name": "_tokenIds",
          "type": "tuple"
        },
        {
          "indexed": false,
          "internalType": "uint256",
          "name": "_tokenId",
          "type": "uint256"
        }
      ],
      "name": "Created",
      "type": "event"
    },
    {
      "anonymous": false,
      "inputs": [
        {
          "indexed": false,
          "internalType": "uint256",
          "name": "_tokenId",
          "type": "uint256"
        }
      ],
      "name": "CreatedToken",
      "type": "event"
    },
    {
      "anonymous": false,
      "inputs": [
        {
          "indexed": true,
          "internalType": "address",
          "name": "from",
          "type": "address"
        },
        {
          "indexed": true,
          "internalType": "address",
          "name": "to",
          "type": "address"
        },
        {
          "indexed": true,
          "internalType": "uint256",
          "name": "tokenId",
          "type": "uint256"
        }
      ],
      "name": "Transfer",
      "type": "event"
    },
    {
      "inputs": [],
      "name": "_tokenIds",
      "outputs": [
        {
          "internalType": "uint256",
          "name": "_value",
          "type": "uint256"
        }
      ],
      "stateMutability": "view",
      "type": "function",
      "constant": true
    },
    {
      "inputs": [
        {
          "internalType": "address",
          "name": "to",
          "type": "address"
        },
        {
          "internalType": "uint256",
          "name": "tokenId",
          "type": "uint256"
        }
      ],
      "name": "approve",
      "outputs": [],
      "stateMutability": "nonpayable",
      "type": "function"
    },
    {
      "inputs": [
        {
          "internalType": "address",
          "name": "owner",
          "type": "address"
        }
      ],
      "name": "balanceOf",
      "outputs": [
        {
          "internalType": "uint256",
          "name": "",
          "type": "uint256"
        }
      ],
      "stateMutability": "view",
      "type": "function",
      "constant": true
    },
    {
      "inputs": [
        {
          "internalType": "uint256",
          "name": "tokenId",
          "type": "uint256"
        }
      ],
      "name": "getApproved",
      "outputs": [
        {
          "internalType": "address",
          "name": "",
          "type": "address"
        }
      ],
      "stateMutability": "view",
      "type": "function",
      "constant": true
    },
    {
      "inputs": [
        {
          "internalType": "address",
          "name": "owner",
          "type": "address"
        },
        {
          "internalType": "address",
          "name": "operator",
          "type": "address"
        }
      ],
      "name": "isApprovedForAll",
      "outputs": [
        {
          "internalType": "bool",
          "name": "",
          "type": "bool"
        }
      ],
      "stateMutability": "view",
      "type": "function",
      "constant": true
    },
    {
      "inputs": [],
      "name": "name",
      "outputs": [
        {
          "internalType": "string",
          "name": "",
          "type": "string"
        }
      ],
      "stateMutability": "view",
      "type": "function",
      "constant": true
    },
    {
      "inputs": [],
      "name": "newId",
      "outputs": [
        {
          "internalType": "uint256",
          "name": "",
          "type": "uint256"
        }
      ],
      "stateMutability": "view",
      "type": "function",
      "constant": true
    },
    {
      "inputs": [
        {
          "internalType": "uint256",
          "name": "tokenId",
          "type": "uint256"
        }
      ],
      "name": "ownerOf",
      "outputs": [
        {
          "internalType": "address",
          "name": "",
          "type": "address"
        }
      ],
      "stateMutability": "view",
      "type": "function",
      "constant": true
    },
    {
      "inputs": [
        {
          "internalType": "address",
          "name": "from",
          "type": "address"
        },
        {
          "internalType": "address",
          "name": "to",
          "type": "address"
        },
        {
          "internalType": "uint256",
          "name": "tokenId",
          "type": "uint256"
        }
      ],
      "name": "safeTransferFrom",
      "outputs": [],
      "stateMutability": "nonpayable",
      "type": "function"
    },
    {
      "inputs": [
        {
          "internalType": "address",
          "name": "from",
          "type": "address"
        },
        {
          "internalType": "address",
          "name": "to",
          "type": "address"
        },
        {
          "internalType": "uint256",
          "name": "tokenId",
          "type": "uint256"
        },
        {
          "internalType": "bytes",
          "name": "_data",
          "type": "bytes"
        }
      ],
      "name": "safeTransferFrom",
      "outputs": [],
      "stateMutability": "nonpayable",
      "type": "function"
    },
    {
      "inputs": [
        {
          "internalType": "address",
          "name": "operator",
          "type": "address"
        },
        {
          "internalType": "bool",
          "name": "approved",
          "type": "bool"
        }
      ],
      "name": "setApprovalForAll",
      "outputs": [],
      "stateMutability": "nonpayable",
      "type": "function"
    },
    {
      "inputs": [
        {
          "internalType": "bytes4",
          "name": "interfaceId",
          "type": "bytes4"
        }
      ],
      "name": "supportsInterface",
      "outputs": [
        {
          "internalType": "bool",
          "name": "",
          "type": "bool"
        }
      ],
      "stateMutability": "view",
      "type": "function",
      "constant": true
    },
    {
      "inputs": [],
      "name": "symbol",
      "outputs": [
        {
          "internalType": "string",
          "name": "",
          "type": "string"
        }
      ],
      "stateMutability": "view",
      "type": "function",
      "constant": true
    },
    {
      "inputs": [
        {
          "internalType": "uint256",
          "name": "tokenId",
          "type": "uint256"
        }
      ],
      "name": "tokenURI",
      "outputs": [
        {
          "internalType": "string",
          "name": "",
          "type": "string"
        }
      ],
      "stateMutability": "view",
      "type": "function",
      "constant": true
    },
    {
      "inputs": [
        {
          "internalType": "address",
          "name": "from",
          "type": "address"
        },
        {
          "internalType": "address",
          "name": "to",
          "type": "address"
        },
        {
          "internalType": "uint256",
          "name": "tokenId",
          "type": "uint256"
        }
      ],
      "name": "transferFrom",
      "outputs": [],
      "stateMutability": "nonpayable",
      "type": "function"
    },
    {
      "inputs": [
        {
          "internalType": "string",
          "name": "tokenURI",
          "type": "string"
        }
      ],
      "name": "create",
      "outputs": [
        {
          "internalType": "uint256",
          "name": "",
          "type": "uint256"
        }
      ],
      "stateMutability": "nonpayable",
      "type": "function"
    }
  ],
  "bytecode": "0x60806040523480156200001157600080fd5b5060405162002fc838038062002fc88339818101604052810190620000379190620001e6565b6040518060400160405280601081526020017f43727970746f426f7920546f6b656e73000000000000000000000000000000008152506040518060400160405280600381526020017f43425400000000000000000000000000000000000000000000000000000000008152508160009080519060200190620000bb9291906200011f565b508060019080519060200190620000d49291906200011f565b50505080600960006101000a81548173ffffffffffffffffffffffffffffffffffffffff021916908373ffffffffffffffffffffffffffffffffffffffff16021790555050620002c5565b8280546200012d9062000246565b90600052602060002090601f0160209004810192826200015157600085556200019d565b82601f106200016c57805160ff19168380011785556200019d565b828001600101855582156200019d579182015b828111156200019c5782518255916020019190600101906200017f565b5b509050620001ac9190620001b0565b5090565b5b80821115620001cb576000816000905550600101620001b1565b5090565b600081519050620001e081620002ab565b92915050565b600060208284031215620001f957600080fd5b60006200020984828501620001cf565b91505092915050565b60006200021f8262000226565b9050919050565b600073ffffffffffffffffffffffffffffffffffffffff82169050919050565b600060028204905060018216806200025f57607f821691505b602082108114156200027657620002756200027c565b5b50919050565b7f4e487b7100000000000000000000000000000000000000000000000000000000600052602260045260246000fd5b620002b68162000212565b8114620002c257600080fd5b50565b612cf380620002d56000396000f3fe608060405234801561001057600080fd5b50600436106101005760003560e01c806370a0823111610097578063b6a46b3b11610066578063b6a46b3b146102ad578063b88d4fde146102dd578063c87b56dd146102f9578063e985e9c51461032957610100565b806370a082311461022557806395d89b4114610255578063a22cb46514610273578063aa46a4001461028f57610100565b806323b872dd116100d357806323b872dd1461019f57806342842e0e146101bb5780635c956fb9146101d75780636352211e146101f557610100565b806301ffc9a71461010557806306fdde0314610135578063081812fc14610153578063095ea7b314610183575b600080fd5b61011f600480360381019061011a9190611ccd565b610359565b60405161012c919061214c565b60405180910390f35b61013d61043b565b60405161014a9190612167565b60405180910390f35b61016d60048036038101906101689190611d60565b6104cd565b60405161017a91906120e5565b60405180910390f35b61019d60048036038101906101989190611c91565b610552565b005b6101b960048036038101906101b49190611b8b565b61066a565b005b6101d560048036038101906101d09190611b8b565b6106ca565b005b6101df6106ea565b6040516101ec91906123b2565b60405180910390f35b61020f600480360381019061020a9190611d60565b6106f0565b60405161021c91906120e5565b60405180910390f35b61023f600480360381019061023a9190611b26565b6107a2565b60405161024c91906123b2565b60405180910390f35b61025d61085a565b60405161026a9190612167565b60405180910390f35b61028d60048036038101906102889190611c55565b6108ec565b005b610297610a6d565b6040516102a491906123b2565b60405180910390f35b6102c760048036038101906102c29190611d1f565b610a79565b6040516102d491906123b2565b60405180910390f35b6102f760048036038101906102f29190611bda565b610b55565b005b610313600480360381019061030e9190611d60565b610bb7565b6040516103209190612167565b60405180910390f35b610343600480360381019061033e9190611b4f565b610d09565b604051610350919061214c565b60405180910390f35b60007f80ac58cd000000000000000000000000000000000000000000000000000000007bffffffffffffffffffffffffffffffffffffffffffffffffffffffff1916827bffffffffffffffffffffffffffffffffffffffffffffffffffffffff1916148061042457507f5b5e139f000000000000000000000000000000000000000000000000000000007bffffffffffffffffffffffffffffffffffffffffffffffffffffffff1916827bffffffffffffffffffffffffffffffffffffffffffffffffffffffff1916145b80610434575061043382610d9d565b5b9050919050565b60606000805461044a90612612565b80601f016020809104026020016040519081016040528092919081815260200182805461047690612612565b80156104c35780601f10610498576101008083540402835291602001916104c3565b820191906000526020600020905b8154815290600101906020018083116104a657829003601f168201915b5050505050905090565b60006104d882610e07565b610517576040517f08c379a000000000000000000000000000000000000000000000000000000000815260040161050e906122e9565b60405180910390fd5b6004600083815260200190815260200160002060009054906101000a900473ffffffffffffffffffffffffffffffffffffffff169050919050565b600061055d826106f0565b90508073ffffffffffffffffffffffffffffffffffffffff168373ffffffffffffffffffffffffffffffffffffffff1614156105ce576040517f08c379a00000000000000000000000000000000000000000000000000000000081526004016105c590612349565b60405180910390fd5b8073ffffffffffffffffffffffffffffffffffffffff166105ed610e73565b73ffffffffffffffffffffffffffffffffffffffff16148061061c575061061b81610616610e73565b610d09565b5b61065b576040517f08c379a000000000000000000000000000000000000000000000000000000000815260040161065290612229565b60405180910390fd5b6106658383610e7b565b505050565b61067b610675610e73565b82610f34565b6106ba576040517f08c379a00000000000000000000000000000000000000000000000000000000081526004016106b190612369565b60405180910390fd5b6106c5838383611012565b505050565b6106e583838360405180602001604052806000815250610b55565b505050565b60085481565b6000806002600084815260200190815260200160002060009054906101000a900473ffffffffffffffffffffffffffffffffffffffff169050600073ffffffffffffffffffffffffffffffffffffffff168173ffffffffffffffffffffffffffffffffffffffff161415610799576040517f08c379a000000000000000000000000000000000000000000000000000000000815260040161079090612269565b60405180910390fd5b80915050919050565b60008073ffffffffffffffffffffffffffffffffffffffff168273ffffffffffffffffffffffffffffffffffffffff161415610813576040517f08c379a000000000000000000000000000000000000000000000000000000000815260040161080a90612249565b60405180910390fd5b600360008373ffffffffffffffffffffffffffffffffffffffff1673ffffffffffffffffffffffffffffffffffffffff168152602001908152602001600020549050919050565b60606001805461086990612612565b80601f016020809104026020016040519081016040528092919081815260200182805461089590612612565b80156108e25780601f106108b7576101008083540402835291602001916108e2565b820191906000526020600020905b8154815290600101906020018083116108c557829003601f168201915b5050505050905090565b6108f4610e73565b73ffffffffffffffffffffffffffffffffffffffff168273ffffffffffffffffffffffffffffffffffffffff161415610962576040517f08c379a0000000000000000000000000000000000000000000000000000000008152600401610959906121e9565b60405180910390fd5b806005600061096f610e73565b73ffffffffffffffffffffffffffffffffffffffff1673ffffffffffffffffffffffffffffffffffffffff16815260200190815260200160002060008473ffffffffffffffffffffffffffffffffffffffff1673ffffffffffffffffffffffffffffffffffffffff16815260200190815260200160002060006101000a81548160ff0219169083151502179055508173ffffffffffffffffffffffffffffffffffffffff16610a1c610e73565b73ffffffffffffffffffffffffffffffffffffffff167f17307eab39ab6107e8899845ad3d59bd9653f200f220920489ca2b5937696c3183604051610a61919061214c565b60405180910390a35050565b60078060000154905081565b6000610a85600761126e565b6000610a916007611284565b905080600881905550610aa43382611292565b610aae8184611460565b610adb600960009054906101000a900473ffffffffffffffffffffffffffffffffffffffff1660016108ec565b7fb2366bdf20ef740d92ac44873588a5da99a4d13cde583a4fe5ad1c971847667381604051610b0a91906123b2565b60405180910390a17f746049fa4b4439a53b1cc3e715ce3cf1a50c9b846f040c54dce0604846b70587600782604051610b44929190612389565b60405180910390a180915050919050565b610b66610b60610e73565b83610f34565b610ba5576040517f08c379a0000000000000000000000000000000000000000000000000000000008152600401610b9c90612369565b60405180910390fd5b610bb1848484846114d4565b50505050565b6060610bc282610e07565b610c01576040517f08c379a0000000000000000000000000000000000000000000000000000000008152600401610bf8906122c9565b60405180910390fd5b6000600660008481526020019081526020016000208054610c2190612612565b80601f0160208091040260200160405190810160405280929190818152602001828054610c4d90612612565b8015610c9a5780601f10610c6f57610100808354040283529160200191610c9a565b820191906000526020600020905b815481529060010190602001808311610c7d57829003601f168201915b505050505090506000610cab611530565b9050600081511415610cc1578192505050610d04565b600082511115610cf6578082604051602001610cde9291906120c1565b60405160208183030381529060405292505050610d04565b610cff84611547565b925050505b919050565b6000600560008473ffffffffffffffffffffffffffffffffffffffff1673ffffffffffffffffffffffffffffffffffffffff16815260200190815260200160002060008373ffffffffffffffffffffffffffffffffffffffff1673ffffffffffffffffffffffffffffffffffffffff16815260200190815260200160002060009054906101000a900460ff16905092915050565b60007f01ffc9a7000000000000000000000000000000000000000000000000000000007bffffffffffffffffffffffffffffffffffffffffffffffffffffffff1916827bffffffffffffffffffffffffffffffffffffffffffffffffffffffff1916149050919050565b60008073ffffffffffffffffffffffffffffffffffffffff166002600084815260200190815260200160002060009054906101000a900473ffffffffffffffffffffffffffffffffffffffff1673ffffffffffffffffffffffffffffffffffffffff1614159050919050565b600033905090565b816004600083815260200190815260200160002060006101000a81548173ffffffffffffffffffffffffffffffffffffffff021916908373ffffffffffffffffffffffffffffffffffffffff160217905550808273ffffffffffffffffffffffffffffffffffffffff16610eee836106f0565b73ffffffffffffffffffffffffffffffffffffffff167f8c5be1e5ebec7d5bd14f71427d1e84f3dd0314c0f7b2291e5b200ac8c7c3b92560405160405180910390a45050565b6000610f3f82610e07565b610f7e576040517f08c379a0000000000000000000000000000000000000000000000000000000008152600401610f7590612209565b60405180910390fd5b6000610f89836106f0565b90508073ffffffffffffffffffffffffffffffffffffffff168473ffffffffffffffffffffffffffffffffffffffff161480610ff857508373ffffffffffffffffffffffffffffffffffffffff16610fe0846104cd565b73ffffffffffffffffffffffffffffffffffffffff16145b8061100957506110088185610d09565b5b91505092915050565b8273ffffffffffffffffffffffffffffffffffffffff16611032826106f0565b73ffffffffffffffffffffffffffffffffffffffff1614611088576040517f08c379a000000000000000000000000000000000000000000000000000000000815260040161107f90612309565b60405180910390fd5b600073ffffffffffffffffffffffffffffffffffffffff168273ffffffffffffffffffffffffffffffffffffffff1614156110f8576040517f08c379a00000000000000000000000000000000000000000000000000000000081526004016110ef906121c9565b60405180910390fd5b6111038383836115ee565b61110e600082610e7b565b6001600360008573ffffffffffffffffffffffffffffffffffffffff1673ffffffffffffffffffffffffffffffffffffffff168152602001908152602001600020600082825461115e919061251e565b925050819055506001600360008473ffffffffffffffffffffffffffffffffffffffff1673ffffffffffffffffffffffffffffffffffffffff16815260200190815260200160002060008282546111b59190612497565b92505081905550816002600083815260200190815260200160002060006101000a81548173ffffffffffffffffffffffffffffffffffffffff021916908373ffffffffffffffffffffffffffffffffffffffff160217905550808273ffffffffffffffffffffffffffffffffffffffff168473ffffffffffffffffffffffffffffffffffffffff167fddf252ad1be2c89b69c2b068fc378daa952ba7f163c4a11628f55a4df523b3ef60405160405180910390a4505050565b6001816000016000828254019250508190555050565b600081600001549050919050565b600073ffffffffffffffffffffffffffffffffffffffff168273ffffffffffffffffffffffffffffffffffffffff161415611302576040517f08c379a00000000000000000000000000000000000000000000000000000000081526004016112f9906122a9565b60405180910390fd5b61130b81610e07565b1561134b576040517f08c379a0000000000000000000000000000000000000000000000000000000008152600401611342906121a9565b60405180910390fd5b611357600083836115ee565b6001600360008473ffffffffffffffffffffffffffffffffffffffff1673ffffffffffffffffffffffffffffffffffffffff16815260200190815260200160002060008282546113a79190612497565b92505081905550816002600083815260200190815260200160002060006101000a81548173ffffffffffffffffffffffffffffffffffffffff021916908373ffffffffffffffffffffffffffffffffffffffff160217905550808273ffffffffffffffffffffffffffffffffffffffff16600073ffffffffffffffffffffffffffffffffffffffff167fddf252ad1be2c89b69c2b068fc378daa952ba7f163c4a11628f55a4df523b3ef60405160405180910390a45050565b61146982610e07565b6114a8576040517f08c379a000000000000000000000000000000000000000000000000000000000815260040161149f90612289565b60405180910390fd5b806006600084815260200190815260200160002090805190602001906114cf92919061194a565b505050565b6114df848484611012565b6114eb848484846115f3565b61152a576040517f08c379a000000000000000000000000000000000000000000000000000000000815260040161152190612189565b60405180910390fd5b50505050565b606060405180602001604052806000815250905090565b606061155282610e07565b611591576040517f08c379a000000000000000000000000000000000000000000000000000000000815260040161158890612329565b60405180910390fd5b600061159b611530565b905060008151116115bb57604051806020016040528060008152506115e6565b806115c58461178a565b6040516020016115d69291906120c1565b6040516020818303038152906040525b915050919050565b505050565b60006116148473ffffffffffffffffffffffffffffffffffffffff16611937565b1561177d578373ffffffffffffffffffffffffffffffffffffffff1663150b7a0261163d610e73565b8786866040518563ffffffff1660e01b815260040161165f9493929190612100565b602060405180830381600087803b15801561167957600080fd5b505af19250505080156116aa57506040513d601f19601f820116820180604052508101906116a79190611cf6565b60015b61172d573d80600081146116da576040519150601f19603f3d011682016040523d82523d6000602084013e6116df565b606091505b50600081511415611725576040517f08c379a000000000000000000000000000000000000000000000000000000000815260040161171c90612189565b60405180910390fd5b805181602001fd5b63150b7a0260e01b7bffffffffffffffffffffffffffffffffffffffffffffffffffffffff1916817bffffffffffffffffffffffffffffffffffffffffffffffffffffffff191614915050611782565b600190505b949350505050565b606060008214156117d2576040518060400160405280600181526020017f30000000000000000000000000000000000000000000000000000000000000008152509050611932565b600082905060005b600082146118045780806117ed9061268f565b915050600a826117fd91906124ed565b91506117da565b60008167ffffffffffffffff811115611846577f4e487b7100000000000000000000000000000000000000000000000000000000600052604160045260246000fd5b6040519080825280601f01601f1916602001820160405280156118785781602001600182028036833780820191505090505b5090505b6000851461192b57600182611891919061251e565b9150600a856118a091906126d8565b60306118ac9190612497565b60f81b8183815181106118e8577f4e487b7100000000000000000000000000000000000000000000000000000000600052603260045260246000fd5b60200101907effffffffffffffffffffffffffffffffffffffffffffffffffffffffffffff1916908160001a905350600a8561192491906124ed565b945061187c565b8093505050505b919050565b600080823b905060008111915050919050565b82805461195690612612565b90600052602060002090601f01602090048101928261197857600085556119bf565b82601f1061199157805160ff19168380011785556119bf565b828001600101855582156119bf579182015b828111156119be5782518255916020019190600101906119a3565b5b5090506119cc91906119d0565b5090565b5b808211156119e95760008160009055506001016119d1565b5090565b6000611a006119fb846123f2565b6123cd565b905082815260208101848484011115611a1857600080fd5b611a238482856125d0565b509392505050565b6000611a3e611a3984612423565b6123cd565b905082815260208101848484011115611a5657600080fd5b611a618482856125d0565b509392505050565b600081359050611a7881612c61565b92915050565b600081359050611a8d81612c78565b92915050565b600081359050611aa281612c8f565b92915050565b600081519050611ab781612c8f565b92915050565b600082601f830112611ace57600080fd5b8135611ade8482602086016119ed565b91505092915050565b600082601f830112611af857600080fd5b8135611b08848260208601611a2b565b91505092915050565b600081359050611b2081612ca6565b92915050565b600060208284031215611b3857600080fd5b6000611b4684828501611a69565b91505092915050565b60008060408385031215611b6257600080fd5b6000611b7085828601611a69565b9250506020611b8185828601611a69565b9150509250929050565b600080600060608486031215611ba057600080fd5b6000611bae86828701611a69565b9350506020611bbf86828701611a69565b9250506040611bd086828701611b11565b9150509250925092565b60008060008060808587031215611bf057600080fd5b6000611bfe87828801611a69565b9450506020611c0f87828801611a69565b9350506040611c2087828801611b11565b925050606085013567ffffffffffffffff811115611c3d57600080fd5b611c4987828801611abd565b91505092959194509250565b60008060408385031215611c6857600080fd5b6000611c7685828601611a69565b9250506020611c8785828601611a7e565b9150509250929050565b60008060408385031215611ca457600080fd5b6000611cb285828601611a69565b9250506020611cc385828601611b11565b9150509250929050565b600060208284031215611cdf57600080fd5b6000611ced84828501611a93565b91505092915050565b600060208284031215611d0857600080fd5b6000611d1684828501611aa8565b91505092915050565b600060208284031215611d3157600080fd5b600082013567ffffffffffffffff811115611d4b57600080fd5b611d5784828501611ae7565b91505092915050565b600060208284031215611d7257600080fd5b6000611d8084828501611b11565b91505092915050565b611d928161255c565b82525050565b611da18161256e565b82525050565b6000611db282612454565b611dbc818561246a565b9350611dcc8185602086016125df565b611dd5816127c5565b840191505092915050565b6000611deb8261245f565b611df5818561247b565b9350611e058185602086016125df565b611e0e816127c5565b840191505092915050565b6000611e248261245f565b611e2e818561248c565b9350611e3e8185602086016125df565b80840191505092915050565b6000611e5760328361247b565b9150611e62826127e3565b604082019050919050565b6000611e7a601c8361247b565b9150611e8582612832565b602082019050919050565b6000611e9d60248361247b565b9150611ea88261285b565b604082019050919050565b6000611ec060198361247b565b9150611ecb826128aa565b602082019050919050565b6000611ee3602c8361247b565b9150611eee826128d3565b604082019050919050565b6000611f0660388361247b565b9150611f1182612922565b604082019050919050565b6000611f29602a8361247b565b9150611f3482612971565b604082019050919050565b6000611f4c60298361247b565b9150611f57826129c0565b604082019050919050565b6000611f6f602e8361247b565b9150611f7a82612a0f565b604082019050919050565b6000611f9260208361247b565b9150611f9d82612a5e565b602082019050919050565b6000611fb560318361247b565b9150611fc082612a87565b604082019050919050565b6000611fd8602c8361247b565b9150611fe382612ad6565b604082019050919050565b6000611ffb60298361247b565b915061200682612b25565b604082019050919050565b600061201e602f8361247b565b915061202982612b74565b604082019050919050565b600061204160218361247b565b915061204c82612bc3565b604082019050919050565b600061206460318361247b565b915061206f82612c12565b604082019050919050565b60208201600080830154905061208f81612644565b61209c60008601826120a3565b5050505050565b6120ac816125c6565b82525050565b6120bb816125c6565b82525050565b60006120cd8285611e19565b91506120d98284611e19565b91508190509392505050565b60006020820190506120fa6000830184611d89565b92915050565b60006080820190506121156000830187611d89565b6121226020830186611d89565b61212f60408301856120b2565b81810360608301526121418184611da7565b905095945050505050565b60006020820190506121616000830184611d98565b92915050565b600060208201905081810360008301526121818184611de0565b905092915050565b600060208201905081810360008301526121a281611e4a565b9050919050565b600060208201905081810360008301526121c281611e6d565b9050919050565b600060208201905081810360008301526121e281611e90565b9050919050565b6000602082019050818103600083015261220281611eb3565b9050919050565b6000602082019050818103600083015261222281611ed6565b9050919050565b6000602082019050818103600083015261224281611ef9565b9050919050565b6000602082019050818103600083015261226281611f1c565b9050919050565b6000602082019050818103600083015261228281611f3f565b9050919050565b600060208201905081810360008301526122a281611f62565b9050919050565b600060208201905081810360008301526122c281611f85565b9050919050565b600060208201905081810360008301526122e281611fa8565b9050919050565b6000602082019050818103600083015261230281611fcb565b9050919050565b6000602082019050818103600083015261232281611fee565b9050919050565b6000602082019050818103600083015261234281612011565b9050919050565b6000602082019050818103600083015261236281612034565b9050919050565b6000602082019050818103600083015261238281612057565b9050919050565b600060408201905061239e600083018561207a565b6123ab60208301846120b2565b9392505050565b60006020820190506123c760008301846120b2565b92915050565b60006123d76123e8565b90506123e3828261265e565b919050565b6000604051905090565b600067ffffffffffffffff82111561240d5761240c612796565b5b612416826127c5565b9050602081019050919050565b600067ffffffffffffffff82111561243e5761243d612796565b5b612447826127c5565b9050602081019050919050565b600081519050919050565b600081519050919050565b600082825260208201905092915050565b600082825260208201905092915050565b600081905092915050565b60006124a2826125c6565b91506124ad836125c6565b9250827fffffffffffffffffffffffffffffffffffffffffffffffffffffffffffffffff038211156124e2576124e1612709565b5b828201905092915050565b60006124f8826125c6565b9150612503836125c6565b92508261251357612512612738565b5b828204905092915050565b6000612529826125c6565b9150612534836125c6565b92508282101561254757612546612709565b5b828203905092915050565b6000819050919050565b6000612567826125a6565b9050919050565b60008115159050919050565b60007fffffffff0000000000000000000000000000000000000000000000000000000082169050919050565b600073ffffffffffffffffffffffffffffffffffffffff82169050919050565b6000819050919050565b82818337600083830152505050565b60005b838110156125fd5780820151818401526020810190506125e2565b8381111561260c576000848401525b50505050565b6000600282049050600182168061262a57607f821691505b6020821081141561263e5761263d612767565b5b50919050565b6000612657612652836127d6565b612552565b9050919050565b612667826127c5565b810181811067ffffffffffffffff8211171561268657612685612796565b5b80604052505050565b600061269a826125c6565b91507fffffffffffffffffffffffffffffffffffffffffffffffffffffffffffffffff8214156126cd576126cc612709565b5b600182019050919050565b60006126e3826125c6565b91506126ee836125c6565b9250826126fe576126fd612738565b5b828206905092915050565b7f4e487b7100000000000000000000000000000000000000000000000000000000600052601160045260246000fd5b7f4e487b7100000000000000000000000000000000000000000000000000000000600052601260045260246000fd5b7f4e487b7100000000000000000000000000000000000000000000000000000000600052602260045260246000fd5b7f4e487b7100000000000000000000000000000000000000000000000000000000600052604160045260246000fd5b6000601f19601f8301169050919050565b60008160001c9050919050565b7f4552433732313a207472616e7366657220746f206e6f6e20455243373231526560008201527f63656976657220696d706c656d656e7465720000000000000000000000000000602082015250565b7f4552433732313a20746f6b656e20616c7265616479206d696e74656400000000600082015250565b7f4552433732313a207472616e7366657220746f20746865207a65726f2061646460008201527f7265737300000000000000000000000000000000000000000000000000000000602082015250565b7f4552433732313a20617070726f766520746f2063616c6c657200000000000000600082015250565b7f4552433732313a206f70657261746f7220717565727920666f72206e6f6e657860008201527f697374656e7420746f6b656e0000000000000000000000000000000000000000602082015250565b7f4552433732313a20617070726f76652063616c6c6572206973206e6f74206f7760008201527f6e6572206e6f7220617070726f76656420666f7220616c6c0000000000000000602082015250565b7f4552433732313a2062616c616e636520717565727920666f7220746865207a6560008201527f726f206164647265737300000000000000000000000000000000000000000000602082015250565b7f4552433732313a206f776e657220717565727920666f72206e6f6e657869737460008201527f656e7420746f6b656e0000000000000000000000000000000000000000000000602082015250565b7f45524337323155524953746f726167653a2055524920736574206f66206e6f6e60008201527f6578697374656e7420746f6b656e000000000000000000000000000000000000602082015250565b7f4552433732313a206d696e7420746f20746865207a65726f2061646472657373600082015250565b7f45524337323155524953746f726167653a2055524920717565727920666f722060008201527f6e6f6e6578697374656e7420746f6b656e000000000000000000000000000000602082015250565b7f4552433732313a20617070726f76656420717565727920666f72206e6f6e657860008201527f697374656e7420746f6b656e0000000000000000000000000000000000000000602082015250565b7f4552433732313a207472616e73666572206f6620746f6b656e2074686174206960008201527f73206e6f74206f776e0000000000000000000000000000000000000000000000602082015250565b7f4552433732314d657461646174613a2055524920717565727920666f72206e6f60008201527f6e6578697374656e7420746f6b656e0000000000000000000000000000000000602082015250565b7f4552433732313a20617070726f76616c20746f2063757272656e74206f776e6560008201527f7200000000000000000000000000000000000000000000000000000000000000602082015250565b7f4552433732313a207472616e736665722063616c6c6572206973206e6f74206f60008201527f776e6572206e6f7220617070726f766564000000000000000000000000000000602082015250565b612c6a8161255c565b8114612c7557600080fd5b50565b612c818161256e565b8114612c8c57600080fd5b50565b612c988161257a565b8114612ca357600080fd5b50565b612caf816125c6565b8114612cba57600080fd5b5056fea2646970667358221220a5849b83ebc901ce8fc43d57e93eb67ce6d318e19dd79944563e29dbab69711e64736f6c63430008040033",
  "immutableReferences": {},
  "source": "// SPDX-License-Identifier: MIT\npragma solidity ^0.8.4;\n\nimport '@openzeppelin/contracts/token/ERC721/ERC721.sol';\nimport '@openzeppelin/contracts/token/ERC721/extensions/ERC721URIStorage.sol';\nimport '@openzeppelin/contracts/utils/Counters.sol';\n\ncontract NFT is ERC721URIStorage{\n    using Counters for Counters.Counter;\n    Counters.Counter public _tokenIds;\n    uint256 public newId;\n    address contractAddress;\n\n    event Created(Counters.Counter _tokenIds, uint256 _tokenId);\n    event CreatedToken(uint256 _tokenId);\n\n    constructor(address marketplaceAddress) ERC721(\"CryptoBoy Tokens\", \"CBT\"){\n        contractAddress = marketplaceAddress;\n    }\n\n    function create(string memory tokenURI) public returns(uint){\n        _tokenIds.increment();\n        uint256 newItemId = _tokenIds.current();\n        newId = newItemId;\n        _mint(msg.sender, newItemId);\n        _setTokenURI(newItemId, tokenURI);\n        setApprovalForAll(contractAddress, true);\n\n        emit CreatedToken(newItemId);\n        emit Created(_tokenIds, newItemId);\n        return newItemId;\n    }\n}",
  "sourcePath": "/home/sulaman/Documents/BlockchainProjects/NFT/nft-marketplace/contracts/NFT.sol",
  "compiler": {
    "name": "solc",
    "version": "0.8.4+commit.c7e474f2.Emscripten.clang"
  },
  "schemaVersion": "3.4.1",
  "updatedAt": "2021-09-09T10:54:32.876Z",
  "networkType": "ethereum",
  "devdoc": {
    "kind": "dev",
    "methods": {
      "approve(address,uint256)": {
        "details": "See {IERC721-approve}."
      },
      "balanceOf(address)": {
        "details": "See {IERC721-balanceOf}."
      },
      "getApproved(uint256)": {
        "details": "See {IERC721-getApproved}."
      },
      "isApprovedForAll(address,address)": {
        "details": "See {IERC721-isApprovedForAll}."
      },
      "name()": {
        "details": "See {IERC721Metadata-name}."
      },
      "ownerOf(uint256)": {
        "details": "See {IERC721-ownerOf}."
      },
      "safeTransferFrom(address,address,uint256)": {
        "details": "See {IERC721-safeTransferFrom}."
      },
      "safeTransferFrom(address,address,uint256,bytes)": {
        "details": "See {IERC721-safeTransferFrom}."
      },
      "setApprovalForAll(address,bool)": {
        "details": "See {IERC721-setApprovalForAll}."
      },
      "supportsInterface(bytes4)": {
        "details": "See {IERC165-supportsInterface}."
      },
      "symbol()": {
        "details": "See {IERC721Metadata-symbol}."
      },
      "tokenURI(uint256)": {
        "details": "See {IERC721Metadata-tokenURI}."
      },
      "transferFrom(address,address,uint256)": {
        "details": "See {IERC721-transferFrom}."
      }
    },
    "version": 1
  },
  "userdoc": {
    "kind": "user",
    "methods": {},
    "version": 1
  }
}