{
  "contractName": "NFTMarket",
  "abi": [
    {
      "inputs": [],
      "stateMutability": "nonpayable",
      "type": "constructor"
    },
    {
      "anonymous": false,
      "inputs": [
        {
          "indexed": false,
          "internalType": "uint256",
          "name": "itemId",
          "type": "uint256"
        },
        {
          "indexed": false,
          "internalType": "address",
          "name": "nftContract",
          "type": "address"
        },
        {
          "indexed": false,
          "internalType": "uint256",
          "name": "tokenId",
          "type": "uint256"
        },
        {
          "indexed": false,
          "internalType": "address",
          "name": "seller",
          "type": "address"
        },
        {
          "indexed": false,
          "internalType": "address",
          "name": "owner",
          "type": "address"
        },
        {
          "indexed": false,
          "internalType": "uint256",
          "name": "price",
          "type": "uint256"
        },
        {
          "indexed": false,
          "internalType": "bool",
          "name": "sold",
          "type": "bool"
        }
      ],
      "name": "MarketItemCreated",
      "type": "event"
    },
    {
      "inputs": [],
      "name": "ItemCaller",
      "outputs": [
        {
          "internalType": "address",
          "name": "",
          "type": "address"
        }
      ],
      "stateMutability": "view",
      "type": "function",
      "constant": true
    },
    {
      "inputs": [],
      "name": "_itemIds",
      "outputs": [
        {
          "internalType": "uint256",
          "name": "_value",
          "type": "uint256"
        }
      ],
      "stateMutability": "view",
      "type": "function",
      "constant": true
    },
    {
      "inputs": [],
      "name": "_itemsSold",
      "outputs": [
        {
          "internalType": "uint256",
          "name": "_value",
          "type": "uint256"
        }
      ],
      "stateMutability": "view",
      "type": "function",
      "constant": true
    },
    {
      "inputs": [
        {
          "internalType": "uint256",
          "name": "",
          "type": "uint256"
        }
      ],
      "name": "idToMarketItem",
      "outputs": [
        {
          "internalType": "uint256",
          "name": "itemId",
          "type": "uint256"
        },
        {
          "internalType": "address",
          "name": "nftContract",
          "type": "address"
        },
        {
          "internalType": "uint256",
          "name": "tokenId",
          "type": "uint256"
        },
        {
          "internalType": "address payable",
          "name": "seller",
          "type": "address"
        },
        {
          "internalType": "address payable",
          "name": "owner",
          "type": "address"
        },
        {
          "internalType": "uint256",
          "name": "price",
          "type": "uint256"
        },
        {
          "internalType": "bool",
          "name": "sold",
          "type": "bool"
        }
      ],
      "stateMutability": "view",
      "type": "function",
      "constant": true
    },
    {
      "inputs": [
        {
          "internalType": "uint256",
          "name": "",
          "type": "uint256"
        }
      ],
      "name": "idToUnsoldMarketItem",
      "outputs": [
        {
          "internalType": "uint256",
          "name": "itemId",
          "type": "uint256"
        },
        {
          "internalType": "address",
          "name": "nftContract",
          "type": "address"
        },
        {
          "internalType": "uint256",
          "name": "tokenId",
          "type": "uint256"
        },
        {
          "internalType": "address payable",
          "name": "seller",
          "type": "address"
        },
        {
          "internalType": "address payable",
          "name": "owner",
          "type": "address"
        },
        {
          "internalType": "uint256",
          "name": "price",
          "type": "uint256"
        },
        {
          "internalType": "bool",
          "name": "sold",
          "type": "bool"
        }
      ],
      "stateMutability": "view",
      "type": "function",
      "constant": true
    },
    {
      "inputs": [],
      "name": "unsoldItemCount",
      "outputs": [
        {
          "internalType": "uint256",
          "name": "",
          "type": "uint256"
        }
      ],
      "stateMutability": "view",
      "type": "function",
      "constant": true
    },
    {
      "inputs": [],
      "name": "getListingPrice",
      "outputs": [
        {
          "internalType": "uint256",
          "name": "",
          "type": "uint256"
        }
      ],
      "stateMutability": "view",
      "type": "function",
      "constant": true
    },
    {
      "inputs": [
        {
          "internalType": "address",
          "name": "nftContract",
          "type": "address"
        },
        {
          "internalType": "uint256",
          "name": "tokenId",
          "type": "uint256"
        },
        {
          "internalType": "uint256",
          "name": "price",
          "type": "uint256"
        }
      ],
      "name": "createMarketItem",
      "outputs": [],
      "stateMutability": "payable",
      "type": "function",
      "payable": true
    },
    {
      "inputs": [
        {
          "internalType": "address",
          "name": "nftContract",
          "type": "address"
        },
        {
          "internalType": "uint256",
          "name": "itemId",
          "type": "uint256"
        }
      ],
      "name": "sellMarketItem",
      "outputs": [],
      "stateMutability": "payable",
      "type": "function",
      "payable": true
    },
    {
      "inputs": [],
      "name": "fetchMarketItems",
      "outputs": [
        {
          "components": [
            {
              "internalType": "uint256",
              "name": "itemId",
              "type": "uint256"
            },
            {
              "internalType": "address",
              "name": "nftContract",
              "type": "address"
            },
            {
              "internalType": "uint256",
              "name": "tokenId",
              "type": "uint256"
            },
            {
              "internalType": "address payable",
              "name": "seller",
              "type": "address"
            },
            {
              "internalType": "address payable",
              "name": "owner",
              "type": "address"
            },
            {
              "internalType": "uint256",
              "name": "price",
              "type": "uint256"
            },
            {
              "internalType": "bool",
              "name": "sold",
              "type": "bool"
            }
          ],
          "internalType": "struct NFTMarket.MarketItem[]",
          "name": "",
          "type": "tuple[]"
        }
      ],
      "stateMutability": "nonpayable",
      "type": "function"
    },
    {
      "inputs": [],
      "name": "fetchMarketItems2",
      "outputs": [],
      "stateMutability": "nonpayable",
      "type": "function"
    },
    {
      "inputs": [],
      "name": "fetchMyNFTs",
      "outputs": [
        {
          "components": [
            {
              "internalType": "uint256",
              "name": "itemId",
              "type": "uint256"
            },
            {
              "internalType": "address",
              "name": "nftContract",
              "type": "address"
            },
            {
              "internalType": "uint256",
              "name": "tokenId",
              "type": "uint256"
            },
            {
              "internalType": "address payable",
              "name": "seller",
              "type": "address"
            },
            {
              "internalType": "address payable",
              "name": "owner",
              "type": "address"
            },
            {
              "internalType": "uint256",
              "name": "price",
              "type": "uint256"
            },
            {
              "internalType": "bool",
              "name": "sold",
              "type": "bool"
            }
          ],
          "internalType": "struct NFTMarket.MarketItem[]",
          "name": "",
          "type": "tuple[]"
        }
      ],
      "stateMutability": "view",
      "type": "function",
      "constant": true
    },
    {
      "inputs": [],
      "name": "fetchItemsCreated",
      "outputs": [
        {
          "components": [
            {
              "internalType": "uint256",
              "name": "itemId",
              "type": "uint256"
            },
            {
              "internalType": "address",
              "name": "nftContract",
              "type": "address"
            },
            {
              "internalType": "uint256",
              "name": "tokenId",
              "type": "uint256"
            },
            {
              "internalType": "address payable",
              "name": "seller",
              "type": "address"
            },
            {
              "internalType": "address payable",
              "name": "owner",
              "type": "address"
            },
            {
              "internalType": "uint256",
              "name": "price",
              "type": "uint256"
            },
            {
              "internalType": "bool",
              "name": "sold",
              "type": "bool"
            }
          ],
          "internalType": "struct NFTMarket.MarketItem[]",
          "name": "",
          "type": "tuple[]"
        }
      ],
      "stateMutability": "view",
      "type": "function",
      "constant": true
    }
  ],
  "bytecode": "0x60806040526658d15e1762800060065534801561001b57600080fd5b50600160008190555033600460006101000a81548173ffffffffffffffffffffffffffffffffffffffff021916908373ffffffffffffffffffffffffffffffffffffffff16021790555061244b806100746000396000f3fe6080604052600436106100c25760003560e01c806358eb2df51161007f578063ba79c2c111610059578063ba79c2c114610218578063cd9f91831461025b578063e61a70c014610286578063f064c32e146102c9576100c2565b806358eb2df5146101b557806387506a0d146101d1578063b0916feb146101fc576100c2565b80630f08efe0146100c7578063113a74b0146100f257806312e855851461011d578063202e3740146101485780632861a89d1461017357806334a7f1931461018a575b600080fd5b3480156100d357600080fd5b506100dc6102f4565b6040516100e99190611ef5565b60405180910390f35b3480156100fe57600080fd5b50610107610623565b6040516101149190611f79565b60405180910390f35b34801561012957600080fd5b50610132610629565b60405161013f9190611f79565b60405180910390f35b34801561015457600080fd5b5061015d610633565b60405161016a9190611ef5565b60405180910390f35b34801561017f57600080fd5b506101886109e3565b005b34801561019657600080fd5b5061019f610c97565b6040516101ac9190611f79565b60405180910390f35b6101cf60048036038101906101ca9190611bdb565b610ca3565b005b3480156101dd57600080fd5b506101e661108d565b6040516101f39190611f79565b60405180910390f35b61021660048036038101906102119190611b9f565b611099565b005b34801561022457600080fd5b5061023f600480360381019061023a9190611c2a565b6113c7565b6040516102529796959493929190611f94565b60405180910390f35b34801561026757600080fd5b50610270611476565b60405161027d9190611ea3565b60405180910390f35b34801561029257600080fd5b506102ad60048036038101906102a89190611c2a565b61149c565b6040516102c09796959493929190611f94565b60405180910390f35b3480156102d557600080fd5b506102de61154b565b6040516102eb9190611ef5565b60405180910390f35b6060600061030260016118fb565b905061030e60026118fb565b61031860016118fb565b61032291906121ea565b60038190555060008060035467ffffffffffffffff81111561036d577f4e487b7100000000000000000000000000000000000000000000000000000000600052604160045260246000fd5b6040519080825280602002602001820160405280156103a657816020015b610393611af4565b81526020019060019003908161038b5790505b50905060005b8381101561061957600073ffffffffffffffffffffffffffffffffffffffff16600760006001846103dd91906120d2565b815260200190815260200160002060040160009054906101000a900473ffffffffffffffffffffffffffffffffffffffff1673ffffffffffffffffffffffffffffffffffffffff1614156106065760006007600060018461043e91906120d2565b81526020019081526020016000206000015490506000600760008381526020019081526020016000209050806040518060e0016040529081600082015481526020016001820160009054906101000a900473ffffffffffffffffffffffffffffffffffffffff1673ffffffffffffffffffffffffffffffffffffffff1673ffffffffffffffffffffffffffffffffffffffff168152602001600282015481526020016003820160009054906101000a900473ffffffffffffffffffffffffffffffffffffffff1673ffffffffffffffffffffffffffffffffffffffff1673ffffffffffffffffffffffffffffffffffffffff1681526020016004820160009054906101000a900473ffffffffffffffffffffffffffffffffffffffff1673ffffffffffffffffffffffffffffffffffffffff1673ffffffffffffffffffffffffffffffffffffffff168152602001600582015481526020016006820160009054906101000a900460ff1615151515815250508486815181106105e9577f4e487b7100000000000000000000000000000000000000000000000000000000600052603260045260246000fd5b602002602001018190525060018561060191906120d2565b945050505b8080610611906122b8565b9150506103ac565b5080935050505090565b60035481565b6000600654905090565b6060600061064160016118fb565b905060008060005b838110156106ea573373ffffffffffffffffffffffffffffffffffffffff166007600060018461067991906120d2565b815260200190815260200160002060040160009054906101000a900473ffffffffffffffffffffffffffffffffffffffff1673ffffffffffffffffffffffffffffffffffffffff1614156106d7576001836106d491906120d2565b92505b80806106e2906122b8565b915050610649565b5060008267ffffffffffffffff81111561072d577f4e487b7100000000000000000000000000000000000000000000000000000000600052604160045260246000fd5b60405190808252806020026020018201604052801561076657816020015b610753611af4565b81526020019060019003908161074b5790505b50905060005b848110156109d8573373ffffffffffffffffffffffffffffffffffffffff166007600060018461079c91906120d2565b815260200190815260200160002060040160009054906101000a900473ffffffffffffffffffffffffffffffffffffffff1673ffffffffffffffffffffffffffffffffffffffff1614156109c5576000600760006001846107fd91906120d2565b81526020019081526020016000206000015490506000600760008381526020019081526020016000209050806040518060e0016040529081600082015481526020016001820160009054906101000a900473ffffffffffffffffffffffffffffffffffffffff1673ffffffffffffffffffffffffffffffffffffffff1673ffffffffffffffffffffffffffffffffffffffff168152602001600282015481526020016003820160009054906101000a900473ffffffffffffffffffffffffffffffffffffffff1673ffffffffffffffffffffffffffffffffffffffff1673ffffffffffffffffffffffffffffffffffffffff1681526020016004820160009054906101000a900473ffffffffffffffffffffffffffffffffffffffff1673ffffffffffffffffffffffffffffffffffffffff1673ffffffffffffffffffffffffffffffffffffffff168152602001600582015481526020016006820160009054906101000a900460ff1615151515815250508486815181106109a8577f4e487b7100000000000000000000000000000000000000000000000000000000600052603260045260246000fd5b60200260200101819052506001856109c091906120d2565b945050505b80806109d0906122b8565b91505061076c565b508094505050505090565b60006109ef60016118fb565b90506109fb60026118fb565b610a0560016118fb565b610a0f91906121ea565b6003819055506000805b82811015610c9257600073ffffffffffffffffffffffffffffffffffffffff1660076000600184610a4a91906120d2565b815260200190815260200160002060040160009054906101000a900473ffffffffffffffffffffffffffffffffffffffff1673ffffffffffffffffffffffffffffffffffffffff161415610c7f57600060076000600184610aab91906120d2565b815260200190815260200160002060000154905060006007600083815260200190815260200160002090508060086000868152602001908152602001600020600082015481600001556001820160009054906101000a900473ffffffffffffffffffffffffffffffffffffffff168160010160006101000a81548173ffffffffffffffffffffffffffffffffffffffff021916908373ffffffffffffffffffffffffffffffffffffffff160217905550600282015481600201556003820160009054906101000a900473ffffffffffffffffffffffffffffffffffffffff168160030160006101000a81548173ffffffffffffffffffffffffffffffffffffffff021916908373ffffffffffffffffffffffffffffffffffffffff1602179055506004820160009054906101000a900473ffffffffffffffffffffffffffffffffffffffff168160040160006101000a81548173ffffffffffffffffffffffffffffffffffffffff021916908373ffffffffffffffffffffffffffffffffffffffff160217905550600582015481600501556006820160009054906101000a900460ff168160060160006101000a81548160ff021916908315150217905550905050600184610c7a91906120d2565b935050505b8080610c8a906122b8565b915050610a19565b505050565b60018060000154905081565b60026000541415610ce9576040517f08c379a0000000000000000000000000000000000000000000000000000000008152600401610ce090611f59565b60405180910390fd5b60026000819055506000610cfc34611909565b905060006040518060600160405280602581526020016123f160259139905060008183604051602001610d30929190611e7f565b604051602081830303815290604052905060008411610d84576040517f08c379a0000000000000000000000000000000000000000000000000000000008152600401610d7b90611f39565b60405180910390fd5b6006543410158190610dcc576040517f08c379a0000000000000000000000000000000000000000000000000000000008152600401610dc39190611f17565b60405180910390fd5b5033600560006101000a81548173ffffffffffffffffffffffffffffffffffffffff021916908373ffffffffffffffffffffffffffffffffffffffff160217905550610e186001611ade565b6000610e2460016118fb565b90506040518060e001604052808281526020018873ffffffffffffffffffffffffffffffffffffffff1681526020018781526020013373ffffffffffffffffffffffffffffffffffffffff168152602001600073ffffffffffffffffffffffffffffffffffffffff16815260200186815260200160001515815250600760008381526020019081526020016000206000820151816000015560208201518160010160006101000a81548173ffffffffffffffffffffffffffffffffffffffff021916908373ffffffffffffffffffffffffffffffffffffffff1602179055506040820151816002015560608201518160030160006101000a81548173ffffffffffffffffffffffffffffffffffffffff021916908373ffffffffffffffffffffffffffffffffffffffff16021790555060808201518160040160006101000a81548173ffffffffffffffffffffffffffffffffffffffff021916908373ffffffffffffffffffffffffffffffffffffffff16021790555060a0820151816005015560c08201518160060160006101000a81548160ff0219169083151502179055509050508673ffffffffffffffffffffffffffffffffffffffff166323b872dd3330896040518463ffffffff1660e01b815260040161100593929190611ebe565b600060405180830381600087803b15801561101f57600080fd5b505af1158015611033573d6000803e3d6000fd5b505050507f045dfa01dcba2b36aba1d3dc4a874f4b0c5d2fbeb8d2c4b34a7d88c8d8f929d18188883360008a60006040516110749796959493929190612003565b60405180910390a1505050506001600081905550505050565b60028060000154905081565b600260005414156110df576040517f08c379a00000000000000000000000000000000000000000000000000000000081526004016110d690611f59565b60405180910390fd5b6002600081905550600060076000838152602001908152602001600020600501549050600060076000848152602001908152602001600020600201549050600061112834611909565b905060006040518060400160405280601181526020017f4e6f7420656e6f75676820546f6b656e20000000000000000000000000000000815250905060008183604051602001611179929190611e7f565b60405160208183030381529060405290508434101581906111d0576040517f08c379a00000000000000000000000000000000000000000000000000000000081526004016111c79190611f17565b60405180910390fd5b506007600087815260200190815260200160002060030160009054906101000a900473ffffffffffffffffffffffffffffffffffffffff1673ffffffffffffffffffffffffffffffffffffffff166108fc349081150290604051600060405180830381858888f1935050505015801561124d573d6000803e3d6000fd5b508673ffffffffffffffffffffffffffffffffffffffff166323b872dd3033876040518463ffffffff1660e01b815260040161128b93929190611ebe565b600060405180830381600087803b1580156112a557600080fd5b505af11580156112b9573d6000803e3d6000fd5b50505050336007600088815260200190815260200160002060040160006101000a81548173ffffffffffffffffffffffffffffffffffffffff021916908373ffffffffffffffffffffffffffffffffffffffff16021790555060016007600088815260200190815260200160002060060160006101000a81548160ff02191690831515021790555061134b6002611ade565b600460009054906101000a900473ffffffffffffffffffffffffffffffffffffffff1673ffffffffffffffffffffffffffffffffffffffff166108fc6006549081150290604051600060405180830381858888f193505050501580156113b5573d6000803e3d6000fd5b50505050505060016000819055505050565b60086020528060005260406000206000915090508060000154908060010160009054906101000a900473ffffffffffffffffffffffffffffffffffffffff16908060020154908060030160009054906101000a900473ffffffffffffffffffffffffffffffffffffffff16908060040160009054906101000a900473ffffffffffffffffffffffffffffffffffffffff16908060050154908060060160009054906101000a900460ff16905087565b600560009054906101000a900473ffffffffffffffffffffffffffffffffffffffff1681565b60076020528060005260406000206000915090508060000154908060010160009054906101000a900473ffffffffffffffffffffffffffffffffffffffff16908060020154908060030160009054906101000a900473ffffffffffffffffffffffffffffffffffffffff16908060040160009054906101000a900473ffffffffffffffffffffffffffffffffffffffff16908060050154908060060160009054906101000a900460ff16905087565b6060600061155960016118fb565b905060008060005b83811015611602573373ffffffffffffffffffffffffffffffffffffffff166007600060018461159191906120d2565b815260200190815260200160002060030160009054906101000a900473ffffffffffffffffffffffffffffffffffffffff1673ffffffffffffffffffffffffffffffffffffffff1614156115ef576001836115ec91906120d2565b92505b80806115fa906122b8565b915050611561565b5060008267ffffffffffffffff811115611645577f4e487b7100000000000000000000000000000000000000000000000000000000600052604160045260246000fd5b60405190808252806020026020018201604052801561167e57816020015b61166b611af4565b8152602001906001900390816116635790505b50905060005b848110156118f0573373ffffffffffffffffffffffffffffffffffffffff16600760006001846116b491906120d2565b815260200190815260200160002060030160009054906101000a900473ffffffffffffffffffffffffffffffffffffffff1673ffffffffffffffffffffffffffffffffffffffff1614156118dd5760006007600060018461171591906120d2565b81526020019081526020016000206000015490506000600760008381526020019081526020016000209050806040518060e0016040529081600082015481526020016001820160009054906101000a900473ffffffffffffffffffffffffffffffffffffffff1673ffffffffffffffffffffffffffffffffffffffff1673ffffffffffffffffffffffffffffffffffffffff168152602001600282015481526020016003820160009054906101000a900473ffffffffffffffffffffffffffffffffffffffff1673ffffffffffffffffffffffffffffffffffffffff1673ffffffffffffffffffffffffffffffffffffffff1681526020016004820160009054906101000a900473ffffffffffffffffffffffffffffffffffffffff1673ffffffffffffffffffffffffffffffffffffffff1673ffffffffffffffffffffffffffffffffffffffff168152602001600582015481526020016006820160009054906101000a900460ff1615151515815250508486815181106118c0577f4e487b7100000000000000000000000000000000000000000000000000000000600052603260045260246000fd5b60200260200101819052506001856118d891906120d2565b945050505b80806118e8906122b8565b915050611684565b508094505050505090565b600081600001549050919050565b60606000821415611951576040518060400160405280600181526020017f30000000000000000000000000000000000000000000000000000000000000008152509050611ad9565b600082905060005b6000821461198357808061196c906122b8565b915050600a8261197c919061215f565b9150611959565b60008167ffffffffffffffff8111156119c5577f4e487b7100000000000000000000000000000000000000000000000000000000600052604160045260246000fd5b6040519080825280601f01601f1916602001820160405280156119f75781602001600182028036833780820191505090505b50905060008290505b60008614611ad157600181611a1591906121ea565b90506000600a8088611a27919061215f565b611a319190612190565b87611a3c91906121ea565b6030611a489190612128565b905060008160f81b905080848481518110611a8c577f4e487b7100000000000000000000000000000000000000000000000000000000600052603260045260246000fd5b60200101907effffffffffffffffffffffffffffffffffffffffffffffffffffffffffffff1916908160001a905350600a88611ac8919061215f565b97505050611a00565b819450505050505b919050565b6001816000016000828254019250508190555050565b6040518060e0016040528060008152602001600073ffffffffffffffffffffffffffffffffffffffff16815260200160008152602001600073ffffffffffffffffffffffffffffffffffffffff168152602001600073ffffffffffffffffffffffffffffffffffffffff168152602001600081526020016000151581525090565b600081359050611b84816123c2565b92915050565b600081359050611b99816123d9565b92915050565b60008060408385031215611bb257600080fd5b6000611bc085828601611b75565b9250506020611bd185828601611b8a565b9150509250929050565b600080600060608486031215611bf057600080fd5b6000611bfe86828701611b75565b9350506020611c0f86828701611b8a565b9250506040611c2086828701611b8a565b9150509250925092565b600060208284031215611c3c57600080fd5b6000611c4a84828501611b8a565b91505092915050565b6000611c5f8383611dd3565b60e08301905092915050565b611c7481612230565b82525050565b611c8381612230565b82525050565b611c928161221e565b82525050565b611ca18161221e565b82525050565b6000611cb282612082565b611cbc81856120a5565b9350611cc783612072565b8060005b83811015611cf8578151611cdf8882611c53565b9750611cea83612098565b925050600181019050611ccb565b5085935050505092915050565b611d0e81612242565b82525050565b611d1d81612242565b82525050565b6000611d2e8261208d565b611d3881856120b6565b9350611d48818560208601612285565b611d518161235f565b840191505092915050565b6000611d678261208d565b611d7181856120c7565b9350611d81818560208601612285565b80840191505092915050565b6000611d9a601c836120b6565b9150611da582612370565b602082019050919050565b6000611dbd601f836120b6565b9150611dc882612399565b602082019050919050565b60e082016000820151611de96000850182611e61565b506020820151611dfc6020850182611c89565b506040820151611e0f6040850182611e61565b506060820151611e226060850182611c6b565b506080820151611e356080850182611c6b565b5060a0820151611e4860a0850182611e61565b5060c0820151611e5b60c0850182611d05565b50505050565b611e6a8161226e565b82525050565b611e798161226e565b82525050565b6000611e8b8285611d5c565b9150611e978284611d5c565b91508190509392505050565b6000602082019050611eb86000830184611c98565b92915050565b6000606082019050611ed36000830186611c98565b611ee06020830185611c98565b611eed6040830184611e70565b949350505050565b60006020820190508181036000830152611f0f8184611ca7565b905092915050565b60006020820190508181036000830152611f318184611d23565b905092915050565b60006020820190508181036000830152611f5281611d8d565b9050919050565b60006020820190508181036000830152611f7281611db0565b9050919050565b6000602082019050611f8e6000830184611e70565b92915050565b600060e082019050611fa9600083018a611e70565b611fb66020830189611c98565b611fc36040830188611e70565b611fd06060830187611c7a565b611fdd6080830186611c7a565b611fea60a0830185611e70565b611ff760c0830184611d14565b98975050505050505050565b600060e082019050612018600083018a611e70565b6120256020830189611c98565b6120326040830188611e70565b61203f6060830187611c98565b61204c6080830186611c98565b61205960a0830185611e70565b61206660c0830184611d14565b98975050505050505050565b6000819050602082019050919050565b600081519050919050565b600081519050919050565b6000602082019050919050565b600082825260208201905092915050565b600082825260208201905092915050565b600081905092915050565b60006120dd8261226e565b91506120e88361226e565b9250827fffffffffffffffffffffffffffffffffffffffffffffffffffffffffffffffff0382111561211d5761211c612301565b5b828201905092915050565b600061213382612278565b915061213e83612278565b92508260ff0382111561215457612153612301565b5b828201905092915050565b600061216a8261226e565b91506121758361226e565b92508261218557612184612330565b5b828204905092915050565b600061219b8261226e565b91506121a68361226e565b9250817fffffffffffffffffffffffffffffffffffffffffffffffffffffffffffffffff04831182151516156121df576121de612301565b5b828202905092915050565b60006121f58261226e565b91506122008361226e565b92508282101561221357612212612301565b5b828203905092915050565b60006122298261224e565b9050919050565b600061223b8261224e565b9050919050565b60008115159050919050565b600073ffffffffffffffffffffffffffffffffffffffff82169050919050565b6000819050919050565b600060ff82169050919050565b60005b838110156122a3578082015181840152602081019050612288565b838111156122b2576000848401525b50505050565b60006122c38261226e565b91507fffffffffffffffffffffffffffffffffffffffffffffffffffffffffffffffff8214156122f6576122f5612301565b5b600182019050919050565b7f4e487b7100000000000000000000000000000000000000000000000000000000600052601160045260246000fd5b7f4e487b7100000000000000000000000000000000000000000000000000000000600052601260045260246000fd5b6000601f19601f8301169050919050565b7f5072696365204d7573742062652067726561746572207468616e203000000000600082015250565b7f5265656e7472616e637947756172643a207265656e7472616e742063616c6c00600082015250565b6123cb8161221e565b81146123d657600080fd5b50565b6123e28161226e565b81146123ed57600080fd5b5056fe5072696365204d75737420626520657175616c20746f206c697374696e6720707269636520a26469706673582212207a13a110118f864811efec341606b4e8ab174f8b4c76344fcef43152b085ea2d64736f6c63430008040033",
  "immutableReferences": {},
  "source": "// SPDX-License-Identifier: MIT\npragma solidity ^0.8.4;\n\nimport \"@openzeppelin/contracts/token/ERC721/ERC721.sol\";\nimport \"@openzeppelin/contracts/token/ERC721/IERC721.sol\";\nimport \"@openzeppelin/contracts/token/ERC721/extensions/ERC721URIStorage.sol\";\nimport \"@openzeppelin/contracts/utils/Counters.sol\";\nimport \"@openzeppelin/contracts/security/ReentrancyGuard.sol\";\n\ncontract NFTMarket is ReentrancyGuard {\n    using Counters for Counters.Counter;\n    Counters.Counter public _itemIds;\n    Counters.Counter public _itemsSold;\n    uint256 public unsoldItemCount;\n\n    address payable owner;\n    address public ItemCaller;\n    uint256 listingPrice = 0.025 ether;\n\n    constructor() {\n        owner = payable(msg.sender);\n    }\n\n    struct MarketItem {\n        uint256 itemId;\n        address nftContract;\n        uint256 tokenId;\n        address payable seller;\n        address payable owner;\n        uint256 price;\n        bool sold;\n    }\n\n    mapping(uint256 => MarketItem) public idToMarketItem;\n    mapping(uint256 => MarketItem) public idToUnsoldMarketItem;\n\n    event MarketItemCreated(\n        uint256 itemId,\n        address nftContract,\n        uint256 tokenId,\n        address seller,\n        address owner,\n        uint256 price,\n        bool sold\n    );\n\n    function getListingPrice() public view returns (uint256) {\n        return listingPrice;\n    }\n\n    function uint2str(uint256 _i)\n        internal\n        pure\n        returns (string memory _uintAsString)\n    {\n        if (_i == 0) {\n            return \"0\";\n        }\n        uint256 j = _i;\n        uint256 len;\n        while (j != 0) {\n            len++;\n            j /= 10;\n        }\n        bytes memory bstr = new bytes(len);\n        uint256 k = len;\n        while (_i != 0) {\n            k = k - 1;\n            uint8 temp = (48 + uint8(_i - (_i / 10) * 10));\n            bytes1 b1 = bytes1(temp);\n            bstr[k] = b1;\n            _i /= 10;\n        }\n        return string(bstr);\n    }\n\n    function createMarketItem(\n        address nftContract,\n        uint256 tokenId,\n        uint256 price\n    ) public payable nonReentrant {\n        //Testing Stuff Start\n        string memory valS = uint2str(msg.value);\n        string memory valS2 = \"Price Must be equal to listing price \";\n        string memory errMsg = string(abi.encodePacked(valS2, valS));\n        require(price > 0, \"Price Must be greater than 0\");\n        require(msg.value >= listingPrice, errMsg);\n        //Testing Stuff End\n\n        ItemCaller = msg.sender;\n        _itemIds.increment();\n        uint256 itemId = _itemIds.current();\n\n        idToMarketItem[itemId] = MarketItem(\n            itemId,\n            nftContract,\n            tokenId,\n            payable(msg.sender),\n            payable(address(0)),\n            price,\n            false\n        );\n        IERC721(nftContract).transferFrom(msg.sender, address(this), tokenId);\n        emit MarketItemCreated(\n            itemId,\n            nftContract,\n            tokenId,\n            msg.sender,\n            address(0),\n            price,\n            false\n        );\n    }\n\n    function sellMarketItem(address nftContract, uint256 itemId)\n        public\n        payable\n        nonReentrant\n    {\n        uint256 price = idToMarketItem[itemId].price;\n        uint256 tokenId = idToMarketItem[itemId].tokenId;\n        string memory valS = uint2str(msg.value);\n        string memory valS2 = \"Not enough Token \";\n        string memory errMsg = string(abi.encodePacked(valS2, valS));\n        require(msg.value >= price, errMsg);\n\n        idToMarketItem[itemId].seller.transfer(msg.value);\n        IERC721(nftContract).transferFrom(address(this), msg.sender, tokenId);\n        idToMarketItem[itemId].owner = payable(msg.sender);\n        idToMarketItem[itemId].sold = true;\n        _itemsSold.increment();\n        payable(owner).transfer(listingPrice);\n    }\n\n    function fetchMarketItems() public returns (MarketItem[] memory) {\n        uint256 itemCount = _itemIds.current();\n        unsoldItemCount = _itemIds.current() - _itemsSold.current();\n        uint256 currentIndex = 0;\n\n        MarketItem[] memory items = new MarketItem[](unsoldItemCount);\n        for (uint256 i = 0; i < itemCount; i++) {\n            if (idToMarketItem[i + 1].owner == address(0)) {\n                uint256 currentId = idToMarketItem[i + 1].itemId;\n                MarketItem storage currentItem = idToMarketItem[currentId];\n                items[currentIndex] = currentItem;\n                currentIndex += 1;\n            }\n        }\n        return items;\n    }\n\n    function fetchMarketItems2() public {\n        uint256 itemCount = _itemIds.current();\n        unsoldItemCount = _itemIds.current() - _itemsSold.current();\n        uint256 currentIndex = 0;\n\n        for (uint256 i = 0; i < itemCount; i++) {\n            if (idToMarketItem[i + 1].owner == address(0)) {\n                uint256 currentId = idToMarketItem[i + 1].itemId;\n                MarketItem storage currentItem = idToMarketItem[currentId];\n                idToUnsoldMarketItem[currentIndex] = currentItem;\n                currentIndex += 1;\n            }\n        }\n    }\n\n    function fetchMyNFTs() public view returns (MarketItem[] memory) {\n        uint256 totalitemCount = _itemIds.current();\n        uint256 itemCount = 0;\n        uint256 currentIndex = 0;\n\n        for (uint256 i = 0; i < totalitemCount; i++) {\n            if (idToMarketItem[i + 1].owner == msg.sender) {\n                itemCount += 1;\n            }\n        }\n\n        MarketItem[] memory items = new MarketItem[](itemCount);\n\n        for (uint256 i = 0; i < totalitemCount; i++) {\n            if (idToMarketItem[i + 1].owner == msg.sender) {\n                uint256 currentId = idToMarketItem[i + 1].itemId;\n                MarketItem storage currentItem = idToMarketItem[currentId];\n                items[currentIndex] = currentItem;\n                currentIndex += 1;\n            }\n        }\n        return items;\n    }\n\n    function fetchItemsCreated() public view returns (MarketItem[] memory) {\n        uint256 totalitemCount = _itemIds.current();\n        uint256 itemCount = 0;\n        uint256 currentIndex = 0;\n\n        for (uint256 i = 0; i < totalitemCount; i++) {\n            if (idToMarketItem[i + 1].seller == msg.sender) {\n                itemCount += 1;\n            }\n        }\n\n        MarketItem[] memory items = new MarketItem[](itemCount);\n\n        for (uint256 i = 0; i < totalitemCount; i++) {\n            if (idToMarketItem[i + 1].seller == msg.sender) {\n                uint256 currentId = idToMarketItem[i + 1].itemId;\n                MarketItem storage currentItem = idToMarketItem[currentId];\n                items[currentIndex] = currentItem;\n                currentIndex += 1;\n            }\n        }\n        return items;\n    }\n\n    // function fetchMarketItems2() public view returns (  uint[] memory,\n    //                                                     uint[] memory,\n    //                                                     uint[] memory,\n    //                                                     address[] memory,\n    //                                                     address[] memory,\n    //                                                     bool[] memory\n    //                                                     ){\n    //     uint itemCount = _itemIds.current();\n    //     uint unsoldItemCount = _itemIds.current() - _itemsSold.current();\n    //     uint currentIndex = 0;\n\n    //     uint256[] memory itemId = new uint[](unsoldItemCount);\n    //     uint256[] memory price = new uint256[](unsoldItemCount);\n    //     uint256[] memory tokenId = new uint256[](unsoldItemCount);\n    //     //address[] memory owner1 = new address[](unsoldItemCount);\n    //     address[] memory nftContract = new address[](unsoldItemCount);\n    //     address[] memory seller = new address[](unsoldItemCount);\n    //     bool[] memory sold = new bool[](unsoldItemCount);\n\n    //     for(uint i=0; i<itemCount; i++){\n    //         if(idToMarketItem[i + 1].owner == address(0)){\n\n    //             itemId[currentIndex] = idToMarketItem[i+1].itemId;\n    //             //itemId[currentIndex] = id;\n    //             price[currentIndex]  = idToMarketItem[i+1].price;\n    //             //price[currentIndex] = pri;\n    //             tokenId[currentIndex] = idToMarketItem[i+1].tokenId;\n    //             //tokenId[currentIndex] = tid;\n    //             nftContract[currentIndex] = idToMarketItem[i+1].nftContract;\n    //             //nftContract[currentIndex] = nftC;\n    //             seller[currentIndex] = idToMarketItem[i+1].seller;\n    //             //seller[currentIndex] = sell;\n    //             //owner1[currentIndex] = idToMarketItem[i+1].owner;\n    //             //owner1[currentIndex] = own;\n    //             sold[currentIndex] = idToMarketItem[i+1].sold;\n    //             //sold[currentIndex] = sol;\n\n    //             currentIndex += 1;\n    //         }\n    //     }\n    //     return (itemId, price, tokenId, nftContract, seller, sold);\n    // }\n}\n",
  "sourcePath": "/home/sulaman/Documents/BlockchainProjects/NFT/nft-marketplace/contracts/NFTMarket.sol",
  "compiler": {
    "name": "solc",
    "version": "0.8.4+commit.c7e474f2.Emscripten.clang"
  },
  "schemaVersion": "3.4.1",
  "updatedAt": "2021-10-12T22:41:55.012Z",
  "networkType": "ethereum",
  "devdoc": {
    "kind": "dev",
    "methods": {},
    "version": 1
  },
  "userdoc": {
    "kind": "user",
    "methods": {},
    "version": 1
  }
}