{
  "contractName": "NFTMarket",
  "abi": [
    {
      "inputs": [],
      "stateMutability": "nonpayable",
      "type": "constructor"
    },
    {
      "anonymous": false,
      "inputs": [
        {
          "indexed": false,
          "internalType": "uint256",
          "name": "itemId",
          "type": "uint256"
        },
        {
          "indexed": false,
          "internalType": "address",
          "name": "nftContract",
          "type": "address"
        },
        {
          "indexed": false,
          "internalType": "uint256",
          "name": "tokenId",
          "type": "uint256"
        },
        {
          "indexed": false,
          "internalType": "address",
          "name": "seller",
          "type": "address"
        },
        {
          "indexed": false,
          "internalType": "address",
          "name": "owner",
          "type": "address"
        },
        {
          "indexed": false,
          "internalType": "uint256",
          "name": "price",
          "type": "uint256"
        },
        {
          "indexed": false,
          "internalType": "bool",
          "name": "sold",
          "type": "bool"
        }
      ],
      "name": "MarketItemCreated",
      "type": "event"
    },
    {
      "inputs": [],
      "name": "_itemIds",
      "outputs": [
        {
          "internalType": "uint256",
          "name": "_value",
          "type": "uint256"
        }
      ],
      "stateMutability": "view",
      "type": "function",
      "constant": true
    },
    {
      "inputs": [],
      "name": "_itemsSold",
      "outputs": [
        {
          "internalType": "uint256",
          "name": "_value",
          "type": "uint256"
        }
      ],
      "stateMutability": "view",
      "type": "function",
      "constant": true
    },
    {
      "inputs": [
        {
          "internalType": "uint256",
          "name": "",
          "type": "uint256"
        }
      ],
      "name": "idToMarketItem",
      "outputs": [
        {
          "internalType": "uint256",
          "name": "itemId",
          "type": "uint256"
        },
        {
          "internalType": "address",
          "name": "nftContract",
          "type": "address"
        },
        {
          "internalType": "uint256",
          "name": "tokenId",
          "type": "uint256"
        },
        {
          "internalType": "address payable",
          "name": "seller",
          "type": "address"
        },
        {
          "internalType": "address payable",
          "name": "owner",
          "type": "address"
        },
        {
          "internalType": "uint256",
          "name": "price",
          "type": "uint256"
        },
        {
          "internalType": "bool",
          "name": "sold",
          "type": "bool"
        }
      ],
      "stateMutability": "view",
      "type": "function",
      "constant": true
    },
    {
      "inputs": [
        {
          "internalType": "uint256",
          "name": "",
          "type": "uint256"
        }
      ],
      "name": "idToUnsoldMarketItem",
      "outputs": [
        {
          "internalType": "uint256",
          "name": "itemId",
          "type": "uint256"
        },
        {
          "internalType": "address",
          "name": "nftContract",
          "type": "address"
        },
        {
          "internalType": "uint256",
          "name": "tokenId",
          "type": "uint256"
        },
        {
          "internalType": "address payable",
          "name": "seller",
          "type": "address"
        },
        {
          "internalType": "address payable",
          "name": "owner",
          "type": "address"
        },
        {
          "internalType": "uint256",
          "name": "price",
          "type": "uint256"
        },
        {
          "internalType": "bool",
          "name": "sold",
          "type": "bool"
        }
      ],
      "stateMutability": "view",
      "type": "function",
      "constant": true
    },
    {
      "inputs": [],
      "name": "unsoldItemCount",
      "outputs": [
        {
          "internalType": "uint256",
          "name": "",
          "type": "uint256"
        }
      ],
      "stateMutability": "view",
      "type": "function",
      "constant": true
    },
    {
      "inputs": [],
      "name": "getListingPrice",
      "outputs": [
        {
          "internalType": "uint256",
          "name": "",
          "type": "uint256"
        }
      ],
      "stateMutability": "view",
      "type": "function",
      "constant": true
    },
    {
      "inputs": [
        {
          "internalType": "address",
          "name": "nftContract",
          "type": "address"
        },
        {
          "internalType": "uint256",
          "name": "tokenId",
          "type": "uint256"
        },
        {
          "internalType": "uint256",
          "name": "price",
          "type": "uint256"
        }
      ],
      "name": "createMarketItem",
      "outputs": [],
      "stateMutability": "payable",
      "type": "function",
      "payable": true
    },
    {
      "inputs": [
        {
          "internalType": "address",
          "name": "nftContract",
          "type": "address"
        },
        {
          "internalType": "uint256",
          "name": "itemId",
          "type": "uint256"
        }
      ],
      "name": "sellMarketItem",
      "outputs": [],
      "stateMutability": "payable",
      "type": "function",
      "payable": true
    },
    {
      "inputs": [],
      "name": "fetchMarketItems",
      "outputs": [
        {
          "components": [
            {
              "internalType": "uint256",
              "name": "itemId",
              "type": "uint256"
            },
            {
              "internalType": "address",
              "name": "nftContract",
              "type": "address"
            },
            {
              "internalType": "uint256",
              "name": "tokenId",
              "type": "uint256"
            },
            {
              "internalType": "address payable",
              "name": "seller",
              "type": "address"
            },
            {
              "internalType": "address payable",
              "name": "owner",
              "type": "address"
            },
            {
              "internalType": "uint256",
              "name": "price",
              "type": "uint256"
            },
            {
              "internalType": "bool",
              "name": "sold",
              "type": "bool"
            }
          ],
          "internalType": "struct NFTMarket.MarketItem[]",
          "name": "",
          "type": "tuple[]"
        }
      ],
      "stateMutability": "nonpayable",
      "type": "function"
    },
    {
      "inputs": [],
      "name": "fetchMarketItems2",
      "outputs": [],
      "stateMutability": "nonpayable",
      "type": "function"
    },
    {
      "inputs": [],
      "name": "fetchMyNFTs",
      "outputs": [
        {
          "components": [
            {
              "internalType": "uint256",
              "name": "itemId",
              "type": "uint256"
            },
            {
              "internalType": "address",
              "name": "nftContract",
              "type": "address"
            },
            {
              "internalType": "uint256",
              "name": "tokenId",
              "type": "uint256"
            },
            {
              "internalType": "address payable",
              "name": "seller",
              "type": "address"
            },
            {
              "internalType": "address payable",
              "name": "owner",
              "type": "address"
            },
            {
              "internalType": "uint256",
              "name": "price",
              "type": "uint256"
            },
            {
              "internalType": "bool",
              "name": "sold",
              "type": "bool"
            }
          ],
          "internalType": "struct NFTMarket.MarketItem[]",
          "name": "",
          "type": "tuple[]"
        }
      ],
      "stateMutability": "view",
      "type": "function",
      "constant": true
    },
    {
      "inputs": [],
      "name": "fetchItemsCreated",
      "outputs": [
        {
          "components": [
            {
              "internalType": "uint256",
              "name": "itemId",
              "type": "uint256"
            },
            {
              "internalType": "address",
              "name": "nftContract",
              "type": "address"
            },
            {
              "internalType": "uint256",
              "name": "tokenId",
              "type": "uint256"
            },
            {
              "internalType": "address payable",
              "name": "seller",
              "type": "address"
            },
            {
              "internalType": "address payable",
              "name": "owner",
              "type": "address"
            },
            {
              "internalType": "uint256",
              "name": "price",
              "type": "uint256"
            },
            {
              "internalType": "bool",
              "name": "sold",
              "type": "bool"
            }
          ],
          "internalType": "struct NFTMarket.MarketItem[]",
          "name": "",
          "type": "tuple[]"
        }
      ],
      "stateMutability": "view",
      "type": "function",
      "constant": true
    }
  ],
  "bytecode": "0x60806040526658d15e1762800060055534801561001b57600080fd5b50600160008190555033600460006101000a81548173ffffffffffffffffffffffffffffffffffffffff021916908373ffffffffffffffffffffffffffffffffffffffff160217905550611fb3806100746000396000f3fe6080604052600436106100a75760003560e01c806358eb2df51161006457806358eb2df51461019a57806387506a0d146101b6578063b0916feb146101e1578063ba79c2c1146101fd578063e61a70c014610240578063f064c32e14610283576100a7565b80630f08efe0146100ac578063113a74b0146100d757806312e8558514610102578063202e37401461012d5780632861a89d1461015857806334a7f1931461016f575b600080fd5b3480156100b857600080fd5b506100c16102ae565b6040516100ce9190611b44565b60405180910390f35b3480156100e357600080fd5b506100ec6105dd565b6040516100f99190611be6565b60405180910390f35b34801561010e57600080fd5b506101176105e3565b6040516101249190611be6565b60405180910390f35b34801561013957600080fd5b506101426105ed565b60405161014f9190611b44565b60405180910390f35b34801561016457600080fd5b5061016d61099d565b005b34801561017b57600080fd5b50610184610c51565b6040516101919190611be6565b60405180910390f35b6101b460048036038101906101af919061188d565b610c5d565b005b3480156101c257600080fd5b506101cb610fae565b6040516101d89190611be6565b60405180910390f35b6101fb60048036038101906101f69190611851565b610fba565b005b34801561020957600080fd5b50610224600480360381019061021f91906118dc565b611274565b6040516102379796959493929190611c01565b60405180910390f35b34801561024c57600080fd5b50610267600480360381019061026291906118dc565b611323565b60405161027a9796959493929190611c01565b60405180910390f35b34801561028f57600080fd5b506102986113d2565b6040516102a59190611b44565b60405180910390f35b606060006102bc6001611782565b90506102c86002611782565b6102d26001611782565b6102dc9190611d7f565b60038190555060008060035467ffffffffffffffff811115610327577f4e487b7100000000000000000000000000000000000000000000000000000000600052604160045260246000fd5b60405190808252806020026020018201604052801561036057816020015b61034d6117a6565b8152602001906001900390816103455790505b50905060005b838110156105d357600073ffffffffffffffffffffffffffffffffffffffff16600660006001846103979190611d29565b815260200190815260200160002060040160009054906101000a900473ffffffffffffffffffffffffffffffffffffffff1673ffffffffffffffffffffffffffffffffffffffff1614156105c0576000600660006001846103f89190611d29565b81526020019081526020016000206000015490506000600660008381526020019081526020016000209050806040518060e0016040529081600082015481526020016001820160009054906101000a900473ffffffffffffffffffffffffffffffffffffffff1673ffffffffffffffffffffffffffffffffffffffff1673ffffffffffffffffffffffffffffffffffffffff168152602001600282015481526020016003820160009054906101000a900473ffffffffffffffffffffffffffffffffffffffff1673ffffffffffffffffffffffffffffffffffffffff1673ffffffffffffffffffffffffffffffffffffffff1681526020016004820160009054906101000a900473ffffffffffffffffffffffffffffffffffffffff1673ffffffffffffffffffffffffffffffffffffffff1673ffffffffffffffffffffffffffffffffffffffff168152602001600582015481526020016006820160009054906101000a900460ff1615151515815250508486815181106105a3577f4e487b7100000000000000000000000000000000000000000000000000000000600052603260045260246000fd5b60200260200101819052506001856105bb9190611d29565b945050505b80806105cb90611e0d565b915050610366565b5080935050505090565b60035481565b6000600554905090565b606060006105fb6001611782565b905060008060005b838110156106a4573373ffffffffffffffffffffffffffffffffffffffff16600660006001846106339190611d29565b815260200190815260200160002060040160009054906101000a900473ffffffffffffffffffffffffffffffffffffffff1673ffffffffffffffffffffffffffffffffffffffff1614156106915760018361068e9190611d29565b92505b808061069c90611e0d565b915050610603565b5060008267ffffffffffffffff8111156106e7577f4e487b7100000000000000000000000000000000000000000000000000000000600052604160045260246000fd5b60405190808252806020026020018201604052801561072057816020015b61070d6117a6565b8152602001906001900390816107055790505b50905060005b84811015610992573373ffffffffffffffffffffffffffffffffffffffff16600660006001846107569190611d29565b815260200190815260200160002060040160009054906101000a900473ffffffffffffffffffffffffffffffffffffffff1673ffffffffffffffffffffffffffffffffffffffff16141561097f576000600660006001846107b79190611d29565b81526020019081526020016000206000015490506000600660008381526020019081526020016000209050806040518060e0016040529081600082015481526020016001820160009054906101000a900473ffffffffffffffffffffffffffffffffffffffff1673ffffffffffffffffffffffffffffffffffffffff1673ffffffffffffffffffffffffffffffffffffffff168152602001600282015481526020016003820160009054906101000a900473ffffffffffffffffffffffffffffffffffffffff1673ffffffffffffffffffffffffffffffffffffffff1673ffffffffffffffffffffffffffffffffffffffff1681526020016004820160009054906101000a900473ffffffffffffffffffffffffffffffffffffffff1673ffffffffffffffffffffffffffffffffffffffff1673ffffffffffffffffffffffffffffffffffffffff168152602001600582015481526020016006820160009054906101000a900460ff161515151581525050848681518110610962577f4e487b7100000000000000000000000000000000000000000000000000000000600052603260045260246000fd5b602002602001018190525060018561097a9190611d29565b945050505b808061098a90611e0d565b915050610726565b508094505050505090565b60006109a96001611782565b90506109b56002611782565b6109bf6001611782565b6109c99190611d7f565b6003819055506000805b82811015610c4c57600073ffffffffffffffffffffffffffffffffffffffff1660066000600184610a049190611d29565b815260200190815260200160002060040160009054906101000a900473ffffffffffffffffffffffffffffffffffffffff1673ffffffffffffffffffffffffffffffffffffffff161415610c3957600060066000600184610a659190611d29565b815260200190815260200160002060000154905060006006600083815260200190815260200160002090508060076000868152602001908152602001600020600082015481600001556001820160009054906101000a900473ffffffffffffffffffffffffffffffffffffffff168160010160006101000a81548173ffffffffffffffffffffffffffffffffffffffff021916908373ffffffffffffffffffffffffffffffffffffffff160217905550600282015481600201556003820160009054906101000a900473ffffffffffffffffffffffffffffffffffffffff168160030160006101000a81548173ffffffffffffffffffffffffffffffffffffffff021916908373ffffffffffffffffffffffffffffffffffffffff1602179055506004820160009054906101000a900473ffffffffffffffffffffffffffffffffffffffff168160040160006101000a81548173ffffffffffffffffffffffffffffffffffffffff021916908373ffffffffffffffffffffffffffffffffffffffff160217905550600582015481600501556006820160009054906101000a900460ff168160060160006101000a81548160ff021916908315150217905550905050600184610c349190611d29565b935050505b8080610c4490611e0d565b9150506109d3565b505050565b60018060000154905081565b60026000541415610ca3576040517f08c379a0000000000000000000000000000000000000000000000000000000008152600401610c9a90611bc6565b60405180910390fd5b600260008190555060008111610cee576040517f08c379a0000000000000000000000000000000000000000000000000000000008152600401610ce590611ba6565b60405180910390fd5b6005543414610d32576040517f08c379a0000000000000000000000000000000000000000000000000000000008152600401610d2990611b66565b60405180910390fd5b610d3c6001611790565b6000610d486001611782565b90506040518060e001604052808281526020018573ffffffffffffffffffffffffffffffffffffffff1681526020018481526020013373ffffffffffffffffffffffffffffffffffffffff168152602001600073ffffffffffffffffffffffffffffffffffffffff16815260200183815260200160001515815250600660008381526020019081526020016000206000820151816000015560208201518160010160006101000a81548173ffffffffffffffffffffffffffffffffffffffff021916908373ffffffffffffffffffffffffffffffffffffffff1602179055506040820151816002015560608201518160030160006101000a81548173ffffffffffffffffffffffffffffffffffffffff021916908373ffffffffffffffffffffffffffffffffffffffff16021790555060808201518160040160006101000a81548173ffffffffffffffffffffffffffffffffffffffff021916908373ffffffffffffffffffffffffffffffffffffffff16021790555060a0820151816005015560c08201518160060160006101000a81548160ff0219169083151502179055509050508373ffffffffffffffffffffffffffffffffffffffff166323b872dd3330866040518463ffffffff1660e01b8152600401610f2993929190611b0d565b600060405180830381600087803b158015610f4357600080fd5b505af1158015610f57573d6000803e3d6000fd5b505050507f045dfa01dcba2b36aba1d3dc4a874f4b0c5d2fbeb8d2c4b34a7d88c8d8f929d1818585336000876000604051610f989796959493929190611c70565b60405180910390a1506001600081905550505050565b60028060000154905081565b60026000541415611000576040517f08c379a0000000000000000000000000000000000000000000000000000000008152600401610ff790611bc6565b60405180910390fd5b600260008190555060006006600083815260200190815260200160002060050154905060006006600084815260200190815260200160002060020154905081341015611081576040517f08c379a000000000000000000000000000000000000000000000000000000000815260040161107890611b86565b60405180910390fd5b6006600084815260200190815260200160002060030160009054906101000a900473ffffffffffffffffffffffffffffffffffffffff1673ffffffffffffffffffffffffffffffffffffffff166108fc349081150290604051600060405180830381858888f193505050501580156110fd573d6000803e3d6000fd5b508373ffffffffffffffffffffffffffffffffffffffff166323b872dd3033846040518463ffffffff1660e01b815260040161113b93929190611b0d565b600060405180830381600087803b15801561115557600080fd5b505af1158015611169573d6000803e3d6000fd5b50505050336006600085815260200190815260200160002060040160006101000a81548173ffffffffffffffffffffffffffffffffffffffff021916908373ffffffffffffffffffffffffffffffffffffffff16021790555060016006600085815260200190815260200160002060060160006101000a81548160ff0219169083151502179055506111fb6002611790565b600460009054906101000a900473ffffffffffffffffffffffffffffffffffffffff1673ffffffffffffffffffffffffffffffffffffffff166108fc6005549081150290604051600060405180830381858888f19350505050158015611265573d6000803e3d6000fd5b50505060016000819055505050565b60076020528060005260406000206000915090508060000154908060010160009054906101000a900473ffffffffffffffffffffffffffffffffffffffff16908060020154908060030160009054906101000a900473ffffffffffffffffffffffffffffffffffffffff16908060040160009054906101000a900473ffffffffffffffffffffffffffffffffffffffff16908060050154908060060160009054906101000a900460ff16905087565b60066020528060005260406000206000915090508060000154908060010160009054906101000a900473ffffffffffffffffffffffffffffffffffffffff16908060020154908060030160009054906101000a900473ffffffffffffffffffffffffffffffffffffffff16908060040160009054906101000a900473ffffffffffffffffffffffffffffffffffffffff16908060050154908060060160009054906101000a900460ff16905087565b606060006113e06001611782565b905060008060005b83811015611489573373ffffffffffffffffffffffffffffffffffffffff16600660006001846114189190611d29565b815260200190815260200160002060030160009054906101000a900473ffffffffffffffffffffffffffffffffffffffff1673ffffffffffffffffffffffffffffffffffffffff161415611476576001836114739190611d29565b92505b808061148190611e0d565b9150506113e8565b5060008267ffffffffffffffff8111156114cc577f4e487b7100000000000000000000000000000000000000000000000000000000600052604160045260246000fd5b60405190808252806020026020018201604052801561150557816020015b6114f26117a6565b8152602001906001900390816114ea5790505b50905060005b84811015611777573373ffffffffffffffffffffffffffffffffffffffff166006600060018461153b9190611d29565b815260200190815260200160002060030160009054906101000a900473ffffffffffffffffffffffffffffffffffffffff1673ffffffffffffffffffffffffffffffffffffffff1614156117645760006006600060018461159c9190611d29565b81526020019081526020016000206000015490506000600660008381526020019081526020016000209050806040518060e0016040529081600082015481526020016001820160009054906101000a900473ffffffffffffffffffffffffffffffffffffffff1673ffffffffffffffffffffffffffffffffffffffff1673ffffffffffffffffffffffffffffffffffffffff168152602001600282015481526020016003820160009054906101000a900473ffffffffffffffffffffffffffffffffffffffff1673ffffffffffffffffffffffffffffffffffffffff1673ffffffffffffffffffffffffffffffffffffffff1681526020016004820160009054906101000a900473ffffffffffffffffffffffffffffffffffffffff1673ffffffffffffffffffffffffffffffffffffffff1673ffffffffffffffffffffffffffffffffffffffff168152602001600582015481526020016006820160009054906101000a900460ff161515151581525050848681518110611747577f4e487b7100000000000000000000000000000000000000000000000000000000600052603260045260246000fd5b602002602001018190525060018561175f9190611d29565b945050505b808061176f90611e0d565b91505061150b565b508094505050505090565b600081600001549050919050565b6001816000016000828254019250508190555050565b6040518060e0016040528060008152602001600073ffffffffffffffffffffffffffffffffffffffff16815260200160008152602001600073ffffffffffffffffffffffffffffffffffffffff168152602001600073ffffffffffffffffffffffffffffffffffffffff168152602001600081526020016000151581525090565b60008135905061183681611f4f565b92915050565b60008135905061184b81611f66565b92915050565b6000806040838503121561186457600080fd5b600061187285828601611827565b92505060206118838582860161183c565b9150509250929050565b6000806000606084860312156118a257600080fd5b60006118b086828701611827565b93505060206118c18682870161183c565b92505060406118d28682870161183c565b9150509250925092565b6000602082840312156118ee57600080fd5b60006118fc8482850161183c565b91505092915050565b60006119118383611a61565b60e08301905092915050565b61192681611dc5565b82525050565b61193581611dc5565b82525050565b61194481611db3565b82525050565b61195381611db3565b82525050565b600061196482611cef565b61196e8185611d07565b935061197983611cdf565b8060005b838110156119aa5781516119918882611905565b975061199c83611cfa565b92505060018101905061197d565b5085935050505092915050565b6119c081611dd7565b82525050565b6119cf81611dd7565b82525050565b60006119e2602483611d18565b91506119ed82611e85565b604082019050919050565b6000611a05601083611d18565b9150611a1082611ed4565b602082019050919050565b6000611a28601f83611d18565b9150611a3382611efd565b602082019050919050565b6000611a4b601f83611d18565b9150611a5682611f26565b602082019050919050565b60e082016000820151611a776000850182611aef565b506020820151611a8a602085018261193b565b506040820151611a9d6040850182611aef565b506060820151611ab0606085018261191d565b506080820151611ac3608085018261191d565b5060a0820151611ad660a0850182611aef565b5060c0820151611ae960c08501826119b7565b50505050565b611af881611e03565b82525050565b611b0781611e03565b82525050565b6000606082019050611b22600083018661194a565b611b2f602083018561194a565b611b3c6040830184611afe565b949350505050565b60006020820190508181036000830152611b5e8184611959565b905092915050565b60006020820190508181036000830152611b7f816119d5565b9050919050565b60006020820190508181036000830152611b9f816119f8565b9050919050565b60006020820190508181036000830152611bbf81611a1b565b9050919050565b60006020820190508181036000830152611bdf81611a3e565b9050919050565b6000602082019050611bfb6000830184611afe565b92915050565b600060e082019050611c16600083018a611afe565b611c23602083018961194a565b611c306040830188611afe565b611c3d606083018761192c565b611c4a608083018661192c565b611c5760a0830185611afe565b611c6460c08301846119c6565b98975050505050505050565b600060e082019050611c85600083018a611afe565b611c92602083018961194a565b611c9f6040830188611afe565b611cac606083018761194a565b611cb9608083018661194a565b611cc660a0830185611afe565b611cd360c08301846119c6565b98975050505050505050565b6000819050602082019050919050565b600081519050919050565b6000602082019050919050565b600082825260208201905092915050565b600082825260208201905092915050565b6000611d3482611e03565b9150611d3f83611e03565b9250827fffffffffffffffffffffffffffffffffffffffffffffffffffffffffffffffff03821115611d7457611d73611e56565b5b828201905092915050565b6000611d8a82611e03565b9150611d9583611e03565b925082821015611da857611da7611e56565b5b828203905092915050565b6000611dbe82611de3565b9050919050565b6000611dd082611de3565b9050919050565b60008115159050919050565b600073ffffffffffffffffffffffffffffffffffffffff82169050919050565b6000819050919050565b6000611e1882611e03565b91507fffffffffffffffffffffffffffffffffffffffffffffffffffffffffffffffff821415611e4b57611e4a611e56565b5b600182019050919050565b7f4e487b7100000000000000000000000000000000000000000000000000000000600052601160045260246000fd5b7f5072696365204d75737420626520657175616c20746f206c697374696e67207060008201527f7269636500000000000000000000000000000000000000000000000000000000602082015250565b7f4e6f7420656e6f75676820546f6b656e00000000000000000000000000000000600082015250565b7f5072696365206d7573742062652067726561746574207468616e205a65726f00600082015250565b7f5265656e7472616e637947756172643a207265656e7472616e742063616c6c00600082015250565b611f5881611db3565b8114611f6357600080fd5b50565b611f6f81611e03565b8114611f7a57600080fd5b5056fea2646970667358221220a970de049053e36b01e4571bef312fefdea5b95d60ae285da32b46718585207e64736f6c63430008040033",
  "immutableReferences": {},
  "source": "// SPDX-License-Identifier: MIT\npragma solidity ^0.8.4;\n\nimport '@openzeppelin/contracts/token/ERC721/ERC721.sol';\nimport '@openzeppelin/contracts/token/ERC721/extensions/ERC721URIStorage.sol';\nimport '@openzeppelin/contracts/utils/Counters.sol';\nimport '@openzeppelin/contracts/security/ReentrancyGuard.sol';\n\ncontract NFTMarket is ReentrancyGuard{\n    using Counters for Counters.Counter;\n    Counters.Counter public _itemIds;\n    Counters.Counter public _itemsSold;\n    uint256 public unsoldItemCount;\n\n    address payable owner;\n    uint256 listingPrice = 0.025 ether;\n\n    \n    constructor(){\n        owner = payable(msg.sender);\n    }\n\n    struct MarketItem{\n        uint itemId;\n        address nftContract;\n        uint256 tokenId;\n        address payable seller;\n        address payable owner;\n        uint256 price;\n        bool sold;\n    }\n\n    mapping(uint256 => MarketItem) public idToMarketItem;\n    mapping(uint256 => MarketItem) public idToUnsoldMarketItem;\n\n    event MarketItemCreated(\n        uint itemId,\n        address nftContract,\n        uint256 tokenId,\n        address seller,\n        address owner,\n        uint256 price,\n        bool sold\n\n    );\n\n    function getListingPrice() public view returns(uint256){\n        return listingPrice;\n    }\n\n    function createMarketItem(\n        address nftContract,\n        uint256 tokenId,\n        uint256 price\n    ) public payable nonReentrant{\n        require(price > 0, 'Price must be greatet than Zero');\n        require(msg.value == listingPrice, 'Price Must be equal to listing price');\n\n        _itemIds.increment();\n        uint256 itemId =_itemIds.current();\n\n        idToMarketItem[itemId] = MarketItem(\n            itemId,\n            nftContract,\n            tokenId,\n            payable(msg.sender),\n            payable(address(0)),\n            price,\n            false\n        );\n        IERC721(nftContract).transferFrom(msg.sender, address(this), tokenId);\n        emit MarketItemCreated(itemId, nftContract, tokenId, msg.sender, address(0), price, false);\n    }\n\n    function sellMarketItem(\n        address nftContract,\n        uint256 itemId\n    )public payable nonReentrant{\n        uint price = idToMarketItem[itemId].price;\n        uint tokenId = idToMarketItem[itemId].tokenId;\n        require(msg.value >= price, 'Not enough Token');\n\n        idToMarketItem[itemId].seller.transfer(msg.value);\n        IERC721(nftContract).transferFrom(address(this), msg.sender, tokenId);\n        idToMarketItem[itemId].owner = payable(msg.sender);\n        idToMarketItem[itemId].sold = true;\n        _itemsSold.increment();\n        payable(owner).transfer(listingPrice);\n    }\n\n    function fetchMarketItems() public returns (MarketItem[] memory){\n        uint itemCount = _itemIds.current();\n        unsoldItemCount = _itemIds.current() - _itemsSold.current();\n        uint currentIndex = 0;\n\n        MarketItem[] memory items = new MarketItem[](unsoldItemCount);\n        for(uint i=0; i<itemCount; i++){\n            if(idToMarketItem[i + 1].owner == address(0)){\n                uint currentId = idToMarketItem[i+1].itemId;\n                MarketItem storage currentItem = idToMarketItem[currentId];\n                items[currentIndex] = currentItem;\n                currentIndex += 1;\n            }\n        }\n        return items;\n    }\n\n    function fetchMarketItems2() public {\n        uint itemCount = _itemIds.current();\n        unsoldItemCount = _itemIds.current() - _itemsSold.current();\n        uint currentIndex = 0;\n\n        for(uint i=0; i<itemCount; i++){\n            if(idToMarketItem[i + 1].owner == address(0)){\n                uint currentId = idToMarketItem[i+1].itemId;\n                MarketItem storage currentItem = idToMarketItem[currentId];\n                idToUnsoldMarketItem[currentIndex] = currentItem;\n                currentIndex += 1;\n            }\n        }\n    }\n\n    // function fetchMarketItems2() public view returns (  uint[] memory,\n    //                                                     uint[] memory,\n    //                                                     uint[] memory, \n    //                                                     address[] memory,\n    //                                                     address[] memory,\n    //                                                     bool[] memory\n    //                                                     ){ \n    //     uint itemCount = _itemIds.current();\n    //     uint unsoldItemCount = _itemIds.current() - _itemsSold.current();\n    //     uint currentIndex = 0;\n\n    //     uint256[] memory itemId = new uint[](unsoldItemCount);\n    //     uint256[] memory price = new uint256[](unsoldItemCount);\n    //     uint256[] memory tokenId = new uint256[](unsoldItemCount);\n    //     //address[] memory owner1 = new address[](unsoldItemCount);\n    //     address[] memory nftContract = new address[](unsoldItemCount);\n    //     address[] memory seller = new address[](unsoldItemCount);\n    //     bool[] memory sold = new bool[](unsoldItemCount);\n\n    //     for(uint i=0; i<itemCount; i++){\n    //         if(idToMarketItem[i + 1].owner == address(0)){\n               \n    //             itemId[currentIndex] = idToMarketItem[i+1].itemId;\n    //             //itemId[currentIndex] = id;\n    //             price[currentIndex]  = idToMarketItem[i+1].price;\n    //             //price[currentIndex] = pri;\n    //             tokenId[currentIndex] = idToMarketItem[i+1].tokenId;\n    //             //tokenId[currentIndex] = tid;\n    //             nftContract[currentIndex] = idToMarketItem[i+1].nftContract;\n    //             //nftContract[currentIndex] = nftC;\n    //             seller[currentIndex] = idToMarketItem[i+1].seller;\n    //             //seller[currentIndex] = sell;\n    //             //owner1[currentIndex] = idToMarketItem[i+1].owner;\n    //             //owner1[currentIndex] = own;\n    //             sold[currentIndex] = idToMarketItem[i+1].sold;\n    //             //sold[currentIndex] = sol;\n\n    //             currentIndex += 1;\n    //         }\n    //     }\n    //     return (itemId, price, tokenId, nftContract, seller, sold);\n    // }\n\n    function fetchMyNFTs() public view returns (MarketItem[] memory){\n        uint totalitemCount = _itemIds.current();\n        uint itemCount = 0;\n        uint currentIndex = 0;\n\n        for(uint i=0; i<totalitemCount; i++){\n            if(idToMarketItem[i+1].owner == msg.sender){\n                itemCount +=1;\n            }\n        }\n\n        MarketItem[] memory items = new MarketItem[](itemCount);\n\n        for(uint i=0; i<totalitemCount; i++){\n            if(idToMarketItem[i+1].owner == msg.sender){\n                uint currentId = idToMarketItem[i+1].itemId;\n                MarketItem storage currentItem = idToMarketItem[currentId];\n                items[currentIndex] = currentItem;\n                currentIndex += 1;\n            }\n        }\n        return items;\n    }\n\n    function fetchItemsCreated() public view returns (MarketItem[] memory){\n        uint totalitemCount = _itemIds.current();\n        uint itemCount = 0;\n        uint currentIndex = 0;\n        \n        for(uint i=0; i<totalitemCount; i++){\n            if(idToMarketItem[i+1].seller == msg.sender){\n                itemCount +=1;\n            }\n        }\n\n        MarketItem[] memory items = new MarketItem[](itemCount);\n\n        for(uint i=0; i<totalitemCount; i++){\n            if(idToMarketItem[i+1].seller == msg.sender){\n                uint currentId = idToMarketItem[i+1].itemId;\n                MarketItem storage currentItem = idToMarketItem[currentId];\n                items[currentIndex] = currentItem;\n                currentIndex += 1;\n            }\n        }\n        return items;\n    }\n\n\n}",
  "sourcePath": "/home/sulaman/Documents/BlockchainProjects/NFT/nft-marketplace/contracts/NFTMarket.sol",
  "compiler": {
    "name": "solc",
    "version": "0.8.4+commit.c7e474f2.Emscripten.clang"
  },
  "schemaVersion": "3.4.1",
  "updatedAt": "2021-09-09T10:54:32.932Z",
  "networkType": "ethereum",
  "devdoc": {
    "kind": "dev",
    "methods": {},
    "version": 1
  },
  "userdoc": {
    "kind": "user",
    "methods": {},
    "version": 1
  }
}